:040000000C94DF007D
:100004000C9400000C9400000C9400000C9400006C
:100014000C9400000C9400000C9400000C9400005C
:100024000C94E7040C9400000C9400000C94000061
:100034000C9400000C9400000C9400000C9400003C
:100044000C9400000C9400000C947E050C940000A9
:100054001027E80364000A000100001000011000EA
:10006400010000000000000000000000E300E400C4
:10007400A300B900CF00D000BC00C700E600E60032
:10008400010043454B2053454E534F522020002539
:10009400642564256425642564256425640042611F
:1000A4006361204C696E650073656E736F723A25E7
:1000B40064203D2025642020004261636120426168
:1000C400636B67726F756E640043656E746572204E
:1000D400506F696E74202020200073656E736F72F8
:1000E4003A2564202D2D3E2025642020006461746F
:1000F40061206B65203D202564200073656E736963
:100104006E67203D202564202000256420202000E7
:100114004B554E494E47202020004249525520203D
:10012400202020004D4552414820202020004849ED
:100134004A415520202020004646204F6E6C696EAF
:100144006553686F7000526F626F742041544D653F
:100154006761313641006D756C61692063656B20A0
:10016400706F696E743A000001002D4E414E0049D3
:100174004E46000080C00100020066000A00040030
:100184006800010060017200010062017400010056
:1001940064017600010066017800010068017A00BC
:1001A40001006A017C0001006C017E000100A001D5
:1001B4006C010200A40178010000F894EE27ECBB66
:1001C400F1E0FBBFEBBFE5BFF8E1F1BDE1BD8DE0C0
:1001D400A2E0BB27ED938A95E9F780E094E0A0E6DE
:1001E400ED930197E9F7EAE7F1E08591959100979E
:1001F40061F0A591B59105901590BF01F0010590AE
:100204000D920197E1F7FB01F0CFEFE5EDBFE4E0DC
:10021400EEBFC0E6D1E00C947F05AA93E881E066C6
:10022400E7B9369A349BFECF349AE5B12196089506
:10023400E9EE0E94F209EBD3E2EEE0939301089514
:10024400E7EF0E94F809E3EF0E94F209E2EE0E9450
:10025400F809E9EEE093920108950E94FE090E94D4
:10026400030AA4EFB1E04BD0E3DF0E94070AA9EB35
:100274000E940C0A0E94230A86D10E94070A0E9447
:100284002A0A0E942E0A0E94320A91D10E942E0A42
:10029400D7DF0E942E0A0E94390A0E94420A0E9455
:1002A400FE090E942A0A0E94420AF4C10E94FE0921
:1002B4000E94030A0E942E0A0E94070AAEEB0E94C3
:1002C4000C0ABEDF0E944A0A0E944A0AE3C10E9445
:1002D400520A0E94560A94F40E945B0A19F00E9482
:1002E400600AFACF0E945B0A41F40E94660A0E94E7
:1002F4005B0A11F00E946D0AF5CFEBCF5EC3BA938F
:10030400AA93949A959A92989398969897980E94FB
:10031400730A2EC10E94770A0E947D0A1797ACF4D3
:100324000E94820AEA17FB0724F40E94960AA1E0BD
:1003340008C00E94820AAE17BF0724F40E94960ADE
:10034400A0E0A0830E949D0AE7CF0895E0919B015D
:10035400A0E4EA02602DE0919A01A0E2EA02F00131
:100364006E0FE0919901A0E1EA02F001A62FAE0F11
:10037400E0919801EE0FEE0FEE0FAE0FE0919701B2
:10038400EE0FEE0FAE0FE0919601EE0FEA0FA09183
:100394009501EA0FE0939F010895BCDFD7DF0E9427
:1003A400A50AA6E8B0E00E94AA0AE3E9F0E0FA93FD
:1003B400EA93E09195010E94B60AE09196010E94A9
:1003C400B60AE09197010E94B60AE09198010E9452
:1003D400B60AE09199010E94B60AE0919A010E943E
:1003E400B60AE0919B010E94B60A8CE10E94A6081D
:1003F400A0960E94BC0A08950E94C00AE881F9816F
:100404000E947D0AAE17BF074CF4C3980E94C30A2A
:10041400C39A0E94C30A0E949D0AF0CFA9C00E94F9
:10042400C70A929A93989698979AA2C00E94C70A6C
:100434009298939A969A97989BC00E94C70A92980A
:10044400939A9698979A94C00E94C70A929A9398FE
:10045400969A97988DC00E94C00A0E947D0A1797A9
:100464000CF50E94D10A0E94D60AEA0FFB1FFF93E3
:10047400EF93A0919001D1DEAF91BF91F0E00E9483
:10048400DB0AA2EAB0E00E94AA0A0E94DE0A0E94E5
:10049400D60A0E94E80AC3980E94730AC39A0E946B
:1004A4009D0ADBCF65C00E94C00A0E947D0A17978F
:1004B4000CF50E94F50AEA0FFB1FFF93EF93A0913E
:1004C4009001ABDEAF91BF91F0E00E94DB0AADEB8F
:1004D400B0E00E94AA0A0E94DE0AA4E1B0E0EE0F96
:1004E400FF1F0E94E80AC3980E94730AC39A0E94DD
:1004F4009D0ADBCF3DC00E94C00A0E947D0A179767
:10050400BCF50E94FB0AEA0FFB1FBF010E94F50A1B
:10051400AE0FBF1F0E94FF0B0F010E94D10A0E9461
:10052400D60AAE0FBF1F0E94FF0BD001AE0FBF1F34
:10053400E2E0F0E00E94DF0BDB010E94DB0AADEC9D
:10054400B0E00E94AA0AEEEDF0E0FA93EA930E946A
:10055400D10A0E94C70B0E94FA0B0E94FB0A0E9458
:10056400E80AC3980E94730AC39A0E949D0AC5CFE1
:10057400229608950E94520A0E94010B19F00E94CB
:10058400060BFACF1CC20E94520A0E94010B19F0FA
:100594000E94060BFACF0E94010B19F40E94060B6D
:1005A400FACF0E942E0AA5E0B0E026DF08C20E941E
:1005B400520A0E940D0B19F00E94120BFACF0E94EE
:1005C4000D0B19F40E94120BFACF0E94010B19F0C3
:1005D4000E94120BFACF0E942E0AA3E0B0E00CDFB7
:1005E400EEC10E94520A0E940D0B19F00E94120BD8
:1005F400FACFE5C10E94520A0E940D0B19F00E9425
:10060400190BFACF0E940D0B19F40E94190BFACFA3
:10061400D6C10E94FE090E94030A0E942E0A0E946B
:10062400070AAEEB0E940C0A0E94230ADADF0E943A
:10063400FE090E942A0A0E94320AA5DF0E942E0A9D
:10064400FFDD0E942E0A0E94390A0E94200B0E949C
:10065400FE09A8ECB0E059D10E94280B1BC00E94EF
:10066400FE090E94030A0E942E0A0E94070AAEEBAA
:100674000E940C0AE4EBEA93A4EBE6DEACE2B1E000
:100684000E94280C0E942E0ADBDD0E94200B0E948F
:10069400230A79DFE1E0F0E0FA93EA93A8ECB0E012
:1006A40016DEE2E0F0E0FA93EA93AEEBB0E045D177
:1006B4000E94FE09ACEDB0E00ADEA3E0B0E09CDEEF
:1006C400A4EBB0E057D10E942E0A08950E94520A6A
:1006D400E0919F01EF77E0939F01F0E0E130A0E02B
:1006E400FA0729F4E881E4560E94300B89C0E3300C
:1006F400A0E0FA0719F40E94370B82C0E730A0E0AB
:10070400FA0719F40E94370B7BC0E230A0E0FA0725
:1007140019F40E943A0B74C0E630A0E0FA0719F409
:100724000E943A0B6DC0EE30A0E0FA0719F40E9463
:100734003A0B66C0E430A0E0FA0729F4E881E451FA
:100744000E94300B5DC0EC30A0E0FA0729F4E88188
:10075400EA500E94300B54C0E830A0E0FA0729F4B4
:10076400E881EA93A9815BDE4BC0E831A0E0FA0797
:1007740019F40E943D0B44C0E031A0E0FA0729F4CB
:100784000E94460B0E944B0B3BC0E833A0E0FA07E3
:1007940019F40E94500B34C0E033A0E0FA0719F4B6
:1007A4000E94500B2DC0E032A0E0FA0719F40E9419
:1007B400500B26C0E037A0E0FA0719F40E94550B4D
:1007C4001FC0E036A0E0FA0719F40E94550B18C0C8
:1007D400E034A0E0FA0739F4E881EA93A981A45649
:1007E4000E944B0B0DC0309759F420FE06C0E881DF
:1007F400E451EA93A98128DE03C00E94460B1DDE62
:100804000C944D090E94520AE0919F01EE73E0930B
:100814009F01F0E0E230A0E0FA0729F4E881EC5807
:100824000E94300B70C0E630A0E0FA0719F40E9471
:10083400370B69C0EE30A0E0FA0719F40E943A0BB6
:1008440062C0E430A0E0FA0729F4E881E4510E9490
:10085400300B59C0EC30A0E0FA0729F4E881EA50E3
:100864000E94300B50C0EC31A0E0FA0719F40E944A
:100874005A0B48C0E830A0E0FA0719F40E945A0B5A
:1008840041C0E831A0E0FA0719F40E943D0B3BC0D7
:10089400E031A0E0FA0729F40E94460B0E944B0BBA
:1008A40032C0E833A0E0FA0719F40E94500B2BC0C1
:1008B400E033A0E0FA0719F40E94550B24C0E0329B
:1008C400A0E0FA0739F4E881EA93A981AC580E94C0
:1008D4004B0B19C0EF37A0E0FA0789F0309719F4F1
:1008E4000E945A0B0FC0ED36A0E0FA0741F0EB3737
:1008F400A0E0FA0721F0EB35A0E0FA0721F4E88143
:10090400EA93A9818CDD0C944D090E94520A0E943D
:10091400560A94F40E945F0B19F00E94600AFACF01
:100924000E945F0B41F40E94660A0E945F0B11F063
:100934000E946D0AF5CFEBCF40C00E94520A0E947C
:10094400560ABCF40E94640B19F00E94690BFACF9A
:100954000E94640B69F421DDC398A881B98152DF38
:100964000E94640B21F0F20131962F01C39AF0CF5B
:10097400E6CF23C00E94520A0E94640B19F00E9421
:10098400690BFACF0E942E0A0C944D090E94520A58
:100994000E94560A94F40E94010B19F00E94600A06
:1009A400FACF0E94010B41F40E94660A0E94010BD7
:1009B40011F00E946D0AF5CFEBCF44245524249600
:1009C4000895C3980E942E0AFDCFAA93EA93EFB725
:1009D400EA93E6E9E2BFE0919401EF5FE0939401CA
:1009E400E0919201A0919401EA1710F0AE9801C031
:1009F400AE9AE0919301A0919401EA1710F0AF9898
:100A040001C0AF9AE991EFBFE991A9911895A7E0C8
:100A140004DCAE2EBB24E0E0EA93A1E00E943B0993
:100A2400EEE6F1E0FA93EA93EEE0F1E0FA93EA936A
:100A3400F401662777270E946F0B0E94C30AE09196
:100A44006201F0916301AE16BF0638F0E0916401D3
:100A5400F0916501EA15FB0508F408C00E94A50A97
:100A6400A4E1B1E00E949A09EBE442C0E0916A017A
:100A7400F0916B01AE16BF0638F0E0916C01F09175
:100A84006D01EA15FB0508F408C00E94A50AAEE151
:100A9400B1E00E949A09E2E42BC0AC14BD0438F022
:100AA400E0916001F0916101EA15FB0508F408C0CA
:100AB4000E94A50AA8E2B1E00E949A09EDE418C0D8
:100AC400E0916601F0916701AE16BF0638F0E0913F
:100AD4006801F0916901EA15FB0508F408C00E9459
:100AE400A50AA2E3B1E00E949A09E8E401C0E8E59E
:100AF400E0938F01F0E008951895E0E0EBBBEABBCA
:100B0400E8E0E8BBEFEFE7BBE5BBE0EFE4BBE1E027
:100B1400E2BBEEEFE1BBEAE4E3BFE6E9E2BFE0E01B
:100B2400ECBFE1EAEFBDE9E0EEBDE0E0EDBDECBD18
:100B3400E7BDE6BDEBBDEABDE9BDE8BDE2BDE5BD8F
:100B4400E4BDE3BDE5BFE4BFE3E0E9BFE0E8E8B945
:100B5400E0E0E0BFE5BFE4BFEAB9E0E6E7B9E4E816
:100B6400E6B9E0B7EF71E0BFA0E10E94BE090E94C0
:100B74004F09C3980E94A50AACE3B1E00E949A0908
:100B8400E0E0EA93A1E00E943B09AAE4B1E00E94FC
:100B94009A09A8EEB3E00E94280C0E944F097894A9
:100BA400989919C0AAE0B0E056DCACEDB5E00E941B
:100BB400280CE0EAEA93A0EA32DCA8ECB0E00E9458
:100BC400280C0E942E0AAAE0B0E06DDCAAE0B0E096
:100BD40092DC0E944F09E2EEE0939301E3EFE0938D
:100BE400920198992AC0E7EFE093930110DFA09156
:100BF4008F01AB3429F40E94A50AA4E1B1E01AC024
:100C0400A0918F01A23429F40E94A50AAEE1B1E0BB
:100C140011C0A0918F01AD3429F40E94A50AA8E265
:100C2400B1E008C0A0918F01A83431F40E94A50A54
:100C3400A2E3B1E00E949A09D9CF99991EC0F301A9
:100C440031963F01A8ECB0E00E94280CC3980E94A2
:100C5400A50AAAE5B1E00E94AA0AE8EBF0E0FA933B
:100C6400EA93F3010E94C70B0E946F0BE4E1F0E0EA
:100C74006E167F0614F0662477249A9973C00E9436
:100C84004F09C39AF301E130A0E0FA0761F1E230C1
:100C9400A0E0FA0709F465C0E330A0E0FA0709F41C
:100CA40060C0E430A0E0FA0709F45BC0E530A0E0DE
:100CB400FA0709F456C0E630A0E0FA0709F451C077
:100CC400E730A0E0FA0709F44CC0E830A0E0FA07E6
:100CD40009F447C0E930A0E0FA0709F442C0EA3059
:100CE400A0E0FA07F1F10E94FE090E94760B0E942F
:100CF4007F0BE5E0F0E0FA93EA930E94760B0E9402
:100D0400850BE5E0F0E0FA93EA93A4EBB0E0DFDAD8
:100D1400A8EEB3E0F4DAE6E9EA93A8EE87DB0E94F2
:100D2400230A0E94850B0E94070A0E94760B0E94E8
:100D34007F0B0E94070A0E94760B0E94850B0E947B
:100D4400230A0E947F0BE2E0F0E0FA93EA930E9408
:100D5400760B0E94850B0E94FE09A4E6B0E0B7DA88
:100D640030DE90CF9B9972C00E944F09C39AF30161
:100D7400E130A0E0FA0711F410DB1EC0E230A0E07D
:100D8400FA0711F40ADB3AC0E330A0E0FA0711F4E1
:100D940004DB34C0E430A0E0FA0711F4FEDA2EC01C
:100DA400E530A0E0FA0711F4F8DA28C0E630A0E054
:100DB400FA0711F4F2DA1BC0C398EEEBEA93AEEB38
:100DC40035DBACE2B1E00E94280CE3ECF0E0FA93EE
:100DD400EA93A3ECB0E00EDC0E94280B0E942E0ADA
:100DE4000E94FE09ACEDB0E072DA0E942E0A0E9465
:100DF400280B0CC0AAE0B0E0FFDAE3DDDDCF0E94EF
:100E0400FE09A6E9B0E063DADCDDF9CFA0918F0139
:100E1400AB3411F422DAEECFA0918F01A23411F495
:100E240045DAE8CFA0918F01AD3411F418DCE2CF9C
:100E3400A0918F01A83411F4ECDBDCCFA0918F01D9
:100E4400A83519F4E4DDE5DBD5CF91CFCACEFFCFC9
:100E5400BA93AA931A930A93AA81BB8112960E9409
:100E6400F20B309759F1AA81BB8114960E94F20BC0
:100E74008F01309761F00230E0E01E0798F0F8012E
:100E840031978F01AA81BB811496ED93FC93AA81BB
:100E9400BB811296ED91FD913196FE93EE933197BD
:100EA400AC81A083AA81BB810E94F20BFF232AF0AC
:100EB400ED91FD913196FE93EE9306C0AA81BB811C
:100EC400EFEFFFEFED93FC931981088125960895C8
:100ED400BA93AA9326970E94B10B10E0AC85BD8506
:100EE400E0E0F0E0ED93FC93EA89FB893196EA8B2C
:100EF400FB8B3197E4912E2FE03009F41DC1E12FD3
:100F0400E03039F4253211F411E002C00E948B0B59
:100F140012C1E130A9F4253219F40E948B0B0AC1E5
:100F240012E040E000E02D3211F401E004C12B3264
:100F340011F44BE200C1203211F440E2FCC002C0C3
:100F4400E23039F450E013E0203311F40068F3C0C8
:100F540003C0E33009F0EFC0203310F02A3308F067
:100F640007C0AAE05A9F502DE22FE0535E0FE3C062
:100F7400E22FE33649F40E94920BE889F989A481AF
:100F8400AA930E94980BD6C0E33741F40E94920BB7
:100F94000E949E0B0E94E2081E2F0AC0E03761F4F3
:100FA4000E94920B0E949E0B0E94EE081E2F086066
:100FB40002600F7730E03CC0E43611F0E93611F4FA
:100FC400046002C0E53731F4E4E5F0E0EE83FF832A
:100FD40015E00CC0E83511F4086003C0E83709F0E7
:100FE400A9C0EEE5F0E0EE83FF8314E002FF17C032
:100FF4000E94920BA889B9891496ED91FD91EA8714
:10100400FB87AB85AA232AF40E94C30BEA87FB87DC
:101014004DE2403011F01F5F01C00B7F09C00E94F8
:10102400920BA889B98914960E94F20BEA87FB8770
:1010340000FD11C0151778F407FF08C002FF04C0B3
:101044000B7F242F115001C020E301C020E20E9435
:101054008B0B5150EFCF312F01FF17C03030A1F06F
:1010640003FF06C0EE81FF812591EE83FF8305C057
:10107400AE81BF812D91AE83BF830E948B0B503014
:1010840009F051503150EACF4BC020E3EE81FF818B
:101094000E94F60BE887F987EE81FF813296EE8392
:1010A400FF83E885F985AA85BB85AE17BF0750F095
:1010B4002F5FA885B985EA85FB85EA1BFB0BEA87C8
:1010C400FB87EFCF2A3328F003FF02C0295F01C05A
:1010D400295D04FD1AC0213320F4A885B985119730
:1010E40009F409C0531710F000FF01C013C020E237
:1010F40007FF0BC020E3006102FF07C00B7F4A9388
:101104000E94980B503009F051500E948B0B5030C4
:1011140009F051503150A885B985129708F0B5CF20
:1011240000FF08C0503031F05150E0E2EA930E94D1
:10113400980BF8CF10E0D8CEAC85BD85ED91FD912C
:101144000E94B80B64960895FF92F82E26970E9489
:10115400B30BDE011C960E94BF0B0E94F20B30976A
:1011640019F4EFEFFFEF27C0DE0116960E94BF0BC4
:101174008D01DE011C960E94BF0BED91FD91EE8363
:10118400FF83E0E0E887E987DE011A960E94BF0B3F
:10119400ED91FD91FA93EA931A930A93EAE2F7E048
:1011A400FA93EA93DE011A9693DE9F01AE81BF8122
:1011B400E0E0EC93F9010E94BA0B2A96FF9008959F
:1011C400BA93AA93A991B991EE27FF276D9166234B
:1011D40011F03196FBCF0895BA93AA93AA27BB279F
:1011E400E991F9910590002011F01196FBCFFD01D2
:1011F4000895FFE0FA95F1F70895A7B3AF70A7BB80
:10120400C19AC098F6DFC29AF4DFA6B3C298F1DFA0
:10121400C29AEFDFC298A7FDF5CF0895A07FAB2B4C
:10122400A8BBC29A0E94FB08C2980E94FB080895BA
:10123400AA93C198A7B3A76FA7BBB8B3BF70A8817F
:10124400EDDFA881A295EADFC19A0C94F009C29A55
:101254000E94FB08E6B3C2980E94FB08E07F089551
:101264000E94FB08F4DFAE2FF2DFC198E295EA2B6F
:101274000895AA930E94FF08E881F0E0EC55FE4F20
:10128400E081A981AE0F0E941A09E981E093A801C7
:10129400E881E093A901229608950E94FF08A2E044
:1012A4000E941A090E94FF08ACE00E941A090E94D9
:1012B400FF08A1E00E941A09E0E0E093A901E0938D
:1012C400A8010895AA93EF93FF93A8816894AA3084
:1012D40039F0E894E091AA01A091A801AE1758F062
:1012E400E091A901EF5FE093A901E0E0EA93A09106
:1012F400A901BFDF56F0E091A801EF5FE093A801D8
:101304007CDFC09AA8810E941A09FF91EF910C9486
:10131400F009BA93AA931A93A981BA81ED91A9838A
:10132400BA831E2FE03019F0A12FCCDFF5CF10C007
:10133400BA93AA931A93E981FA813196E983FA83DD
:101344003197E4911E2FE03019F0A12FBBDFF3CFCA
:10135400188123960895AA27BB271197F1F70895BA
:10136400AA93C198A7B3A76FA7BBB8B3BF70A8814E
:101374000E941009C19A32C0AA93C298C098E88109
:10138400E093AA01E058E093A601E881E054E093D9
:10139400A7010E94A80B0E94A80B0E94A80BDBDFE8
:1013A400A0E2DEDFD8DFA8E20E94AD0BA4E00E9439
:1013B400AD0BA5E80E94AD0BA7B3AF70A7BBC19A54
:1013C4000E943209E53011F0E0E008C00E94FF08F5
:1013D400A6E00E941A090E944F09E1E021960895AF
:1013E400E0939201A4EFB1E00C94280CE0939301F4
:1013F400A8ECB0E00C94280CE1E0F0E0FA93EA9356
:101404000895A9EBB0E00C946901E3E0F0E0FA93ED
:10141400EA930895B0E00E949F04AAEAB0E00E9413
:10142400BC04A4E6B0E00E948101E0EAF0E0FA9393
:10143400EA93A0EAB0E00E94FC02A4E6B0E00C94B7
:101444008101EAEAF0E0FA93EA93AAEAB0E00895A7
:10145400A8ECB0E00C94C804A4E6B0E00C948101BC
:10146400EEEBF0E0FA93EA93AEEBB0E00895E0EA35
:10147400EA93A0EA0E941802A4E6B0E00C94280CB7
:10148400E0EAF0E0FA93EA93A0EAB0E00C94F30205
:10149400E0EAF0E0FA93EA93A0EAB0E00C94D9020F
:1014A400BA93AA930C94CF01EA81FB814E165F068E
:1014B4000895E0919F01EC71EC3108950E94CF01F1
:1014C400A881B9810C9468030E94CF01C398A881B4
:1014D400B9810C946803F20131962F013197C39AB4
:1014E4000895A881B9810C94280CE0E0E093900160
:1014F400E09391010895A0919001B0919101089514
:10150400A09190010E940F010E2EE0919001F091A4
:101514009101A8E2B0E0EE0FFF1FAE0FBF1F0E94C3
:10152400FF0BA02DB0E00895E0919001F09191019E
:10153400EB56FE4F0895A0E9B1E0ED91FD9131968F
:10154400FE93EE930895E0E0EA93A0E00C943B0947
:101554000E949A09E0E0EA93A1E00E943B09EEE6CA
:10156400F1E0FA93EA930895FF27662777270E940C
:10157400FA0B0895AEE6B1E00C948B09BA93AA93E2
:10158400B4CFA4E6B0E00C94280CAA93E881F0E070
:10159400F9BDE8BDE981F0E0FBBDEABD0895E09145
:1015A4009001F09191010895A0E0B0E0EE0FFF1FCB
:1015B40008950E940F0CC7CFECEAF0E0FA93EA9387
:1015C400EEDF0E94C70B0E94FA0BE9CFAE0FBF1FDC
:1015D4000E94FF0B0E94C70B0E94FA0B88E00E9436
:1015E400A6082C96C7CFDBDFA4E1B0E0EE0FFF1F07
:1015F4000895D5DFA8E2B0E0EE0FFF1F0895E09153
:101604009F01E170E13008950E94CF01EA81EA93DD
:10161400A9810C942602E0919F01E074E0340895BE
:101624000E94CF01EA81EA93A9810C941F020E94CF
:10163400CF01EA81EA93A9810C941802E4EBF0E06B
:10164400FA93EA93A4EBB0E00C94C502E0EAF0E06C
:10165400FA93EA93A0EAB0E00C94BC02EA93A9815D
:101664000E941102689420F80895E881E654F6CFA8
:10167400E881E852F3CFE881EA93A981AA500E9455
:101684001102E89420F80895E881EA93A981A4510D
:1016940008950E941102E89420F80895E881EA93DD
:1016A400A981A852F6CFE881EA93A981A654F1CF83
:1016B400E881EA93A981AD5F0895E0919F01E0720A
:1016C400E0320895E0919F01EF77E03008950E94A1
:1016D400CF01A881B9810C9404040E94FA0B84E020
:1016E4000E94A608289646CFA4EBB0E00E946901A8
:1016F400A8EEB3E00E948101A4CE0E94BC02A8EE31
:10170400B3E00C9481010E94F302A8EEB3E00C94C0
:1017140081012A93AD85BE85EF85F88909950895E1
:10172400E889F9893497E88BF98B0895AD85BE85EE
:10173400EF85F88909950895A889B9891496ED91DA
:10174400FD91EE83FF83AE81BF8108950E94AD09B0
:10175400A0E30C94B2090E941A090C94AD095A939F
:101764004A933A932A931A930A9308955D814C817C
:101774003B812A811981088108950024AF0DB01D91
:101784000895F195E195F04008956F2F660F660B6B
:10179400762F08950024112490E1AA0FBB1F001C8A
:1017A400111C0E1A1F0A18F40E0E1F1E01C0A16090
:1017B4009A9599F7FD01D001089504D0EBDF0EF45A
:1017C400E0DF0895E894F7FF02C0DBDF6894B7FF19
:1017D40006C0B195A195B04000F8039400FA0895AD
:1017E400ED91FC91119708950590F491E02D0895E1
:1017F4007A936A93FA93EA930895119602D0FE2F8E
:101804001197E199FECFFF93FFB7F894AEBBBFBB2E
:10181400E09AEDB3FFBFFF91089507D01196EF93BF
:10182400EF2F03D0EF9111970895E19B02C0A89583
:10183400FCCF9FB7F894AEBBBFBBE09A8DB3E8175B
:1018440019F0EDBBE29AE19A9FBF0895109639F022
:10185400A8958DEC9AE00197F1F71197C9F70895CF
:00000001FF
