:080000000C945B010C9400005C
:100008000C9400000C9400000C9400000C94000068
:100018000C9400000C9400000C9400000C94E4076D
:100028000C9400000C9400000C9400000C94000048
:100038000C9400000C9400000C9400000C94000038
:100048000C9400000C9402080C9400001027E8039C
:1000580064000A0001000010000110000100000007
:1000680000000A006400C80060FFC800DC005000FF
:10007800A500AA00050055002564256425642564AB
:100088002564256425640042616361204C696E65BE
:100098000073656E736F723A2564203D20256420D5
:1000A800200042616361204261636B67726F756E05
:1000B800640043656E74657220506F696E74202009
:1000C80020200073656E736F723A2564202D2D3ED3
:1000D8002025642020002564202020004D656E75B1
:1000E800004B616C6962726173690052756E2042DF
:1000F8006F740053656E73205761726E61004D61B5
:10010800702042697275004D6170204D657261689A
:10011800004D6F746F7200427574746F6E004361A6
:1001280070697400436C69636B203220746F2073AC
:10013800746172740052756E6E696E672E2E2E0091
:1001480054657374204D6F746F72002B31303030EA
:10015800202B31303030002D31303030202D3130EF
:100168003030002B31303030202D31303030002D00
:1001780031303030202B3130303000436C69636BC4
:10018800203120746F206578697400746F6D626F18
:100198006C203D2031202020202000746F6D626F7C
:1001A8006C203D2032202020202000746F6D626F6B
:1001B8006C203D2033202020202000746F6D626F5A
:1001C8006C203D20342020202020005761726E6171
:1001D8003A0045786974696E672E2E2E005465734F
:1001E800742043617069740043617069743A203EF9
:1001F800203C0043617069743A203C203E00436112
:100208007069743A205C2F0043617069743A202F3A
:100218005C00486F6C64203120746F2065786974C5
:1002280000584400256325640020202020204C45E8
:1002380047494F4E202020202000204D414E203499
:10024800204A4F4D42414E47200001002D4E414E5D
:1002580000494E46000080C004000400660001000A
:1002680093016A00010095016C00010097016E007E
:1002780002009901700001009B0172000100A101B8
:1002880074000100A30176000100A50178000100B7
:10029800A7017A000100A9017C000100AB017E00E2
:1002A8000100AF0152020200B3015E020000F8949F
:1002B800EE27ECBBF1E0FBBFEBBFE5BFF8E1F1BD1A
:1002C800E1BD8DE0A2E0BB27ED938A95E9F780E0D8
:1002D80094E0A0E6ED930197E9F7E0E6F2E0859176
:1002E8009591009761F0A591B59105901590BF0182
:1002F800F00105900D920197E1F7FB01F0CFEFE5D2
:10030800EDBFE4E0EEBFC0E6D1E00C940308AA9389
:10031800E881E066E7B9369A349BFECF349AE5B1B6
:1003280021960895BA93AA93A881B9810E94E20EF2
:100338000CC3882499240E94DA0BD4F40E94DF0BA2
:10034800EA17FB0734F4A6E8B1E0A80DB91DE1E00F
:100358000AC00E94DF0BAE17BF0734F4A6E8B1E06D
:10036800A80DB91DE0E0EC93F40131964F01E3CFFD
:100378000895A0918C01E0E4EA9FB001A0918B015F
:10038800E0E20E94EF0BA0918A01E0E10E94EF0BEE
:10039800A0918901E8E00E94EF0BA0918801E4E0B8
:1003A8000E94EF0BA0918701E2E00E94EF0BA09161
:1003B8008601E1E0EA9FF001E60FF71FE0938D0167
:1003C800F0938E010895B5DFD4DF0895B2DFE9E038
:1003D8000E94F40B0E94F80BE0E8F0E0FA93EA932D
:1003E800E09186010E94FD0BE09187010E94FD0BC0
:1003F800E09188010E94FD0BE09189010E94FD0BAC
:10040800E0918A010E94FD0BE0918B010E94FD0B97
:10041800E0918C010E94FD0B8CE10E94840AA09659
:100428000E94030C0895882499240E94DA0BE4F4AE
:100438000E94070CEA0FFB1FFF93EF93A82D67DFBD
:10044800AF91BF910E940D0CAFE8B0E00E94120C72
:100458000E941A0C0E94070C0E94240C0E94310C66
:10046800F40131964F01E1CF0895882499240E9420
:10047800DA0BE4F40E94380CEA0FFB1FFF93EF93AA
:10048800A82D45DFAF91BF910E940D0CAAEAB0E0FC
:100498000E94120C0E941A0C0E94380C0E94240C14
:1004A8000E94310CF40131964F01E1CF0895882460
:1004B80099240E94DA0BD4F5F401ACE1B0E0EE0F18
:1004C800FF1FEA0FFB1FBF010E94380CAE0FBF1FB2
:1004D8000E94CE0D0F010E94070CAE0FBF1F0E9495
:1004E800CE0DD001AE0FBF1FE2E0F0E00E94AE0DCE
:1004F800DB010E94DE0DE0E00E94F40BAAEBB0E005
:100508000E94120CEBECF0E0FA93EA93F4010E94DB
:100518003E0CF401ACE1B0E0EE0FFF1F0E94240C8A
:10052800C398C39AF40131964F01C3CF08950E942E
:10053800430C929A93989698979A07C20E94430CF4
:100548009298939A969A979800C20E94430C929810
:10055800939A9698979AF9C10E94430C929A939805
:10056800969A9798F2C1BA93AA93AA81BB810E94DE
:10057800D90AFBBDEABDAA81BB810E94F70D1CF414
:10058800929A939802C09298939AA881B9810E94EE
:10059800D90AF9BDE8BD0E944D0C1CF4979A9698AB
:1005A80002C09798969AC5C1BA93AA93949A959AB5
:1005B8009298939896989798A881B9810E94E20E8C
:1005C800C4C1BA93AA93EA81EA93AB81B0DF0E94CF
:1005D800520CAFC1BA93AA930E94560CAAE9B9E982
:1005E80089E19EE30E94940EA3E9B1E00E945D0CAC
:1005F8000E94560CAAE9B9E989E19FE30E94940E8A
:10060800A5E9B1E00E945D0CE881F981E0939701CA
:10061800F09398010E94560CA0E0B0E080E49FE3BC
:100628000E94940E0E94FB0DA9E9B1E00E945D0CA6
:10063800E881F981E0939B01F0939C0186C1BA930C
:10064800AA9322970E946B0DA885B985C3DF0E94E3
:10065800620CEF77F070E0938D01F0938E010E94A9
:10066800620CE130A0E0FA0719F4EAEFFFEF56C098
:10067800E330A0E0FA0719F4EBEFFFEF4FC0E230E8
:10068800A0E0FA0719F4ECEFFFEF48C0E630A0E06D
:10069800FA0719F4EDEFFFEF41C0E430A0E0FA07E4
:1006A80019F4EEEFFFEF3AC0EC30A0E0FA0719F4C6
:1006B800EFEFFFEF33C0E830A0E0FA0731F4E0E0F5
:1006C800E0938F01E09390012DC0E831A0E0FA0794
:1006D80019F4E1E0F0E022C0E031A0E0FA0719F4F3
:1006E800E2E0F0E01BC0E033A0E0FA0719F4E3E031
:1006F800F0E014C0E032A0E0FA0719F4E4E0F0E01A
:100708000DC0E036A0E0FA0719F4E5E0F0E006C015
:10071800E034A0E0FA0731F4E6E0F0E0E0938F017E
:10072800F0939001A0919101B0919201E0918F0115
:10073800F0919001EA1BFB0B8F01E0918F01F09182
:100748009001E0939101F0939201E0919301F0916F
:100758009401A0918F01B09190010E94960DBF0164
:10076800E0919501F0919601D8010E94960DE60F4F
:10077800F71F9F01A0919701B0919801EA0FFB1F05
:10078800AF01E0919701F0919801E21BF30BEE8322
:10079800FF830E94670CE417F50724F440919B013E
:1007A80050919C010E946C0C4E175F0724F44091F5
:1007B800990150919A010E94670CAE81BF81EA1796
:1007C800FB0724F40E94670CEE83FF830E946C0CE5
:1007D800AE81BF81AE17BF0724F40E946C0CEE8374
:1007E800FF835A934A93A885B985BDDE0E94720D8E
:1007F8002A960895BA93AA93EA81FB814E165F065A
:10080800D4F40E94710C29F0DEDDA881B98117DFCC
:10081800F8CF0E94710C71F4D6DDC398A881B98114
:100828000EDF0E94710C29F0F20131962F013197E9
:10083800C39AEFCFE1CF442455247BC0BA93AA933F
:10084800EC81FD814E165F06CCF4BDDDAA81BB812B
:10085800F6DE0E94620CEF77EF3771F4F201319601
:100868002F013197EA81EA93AB8168DE0E94520C2E
:10087800AAE0B0E099DE01C0E8CFE2CF44245524D5
:1008880026960895BA93AA939EDDE0918601E030FA
:1008980021F4E0918701E03019F00E94750CF5CF42
:1008A800E0918601E03021F4E0918701E03009F021
:1008B80003C00E94750CF4CF0E944D0C1CF4A88153
:1008C800B98172DE36C0BA93AA937DDDE0918B01BF
:1008D800E03021F4E0918C01E03019F00E947C0CAA
:1008E800F5CFE0918B01E03021F4E0918C01E0300C
:1008F80009F003C00E947C0CF4CF0E944D0C1CF43C
:10090800A881B98151DE15C00E94830C21F40E9490
:100918008B0CD9DF03C00E948B0CB4DF0AC00E9485
:10092800830C21F40E948B0CADDF03C00E948B0C5A
:10093800CADF24960895BA93AA93EDEEDE2E0E949C
:10094800520CEAEECE2E0E94520C22960895E0EF49
:10095800CE2EE6EEDE2E0895A7E0D9DC6E2E7724A3
:10096800EDE00E94920C0E94F80BEEEDF0E0FA9395
:10097800EA93F301662777270E94C90D84E00E9455
:10098800840A289618C30E94960CEF34A1F40E949A
:100998009B0CA0E9B1E015DEE1E0F0E00E94A00CBC
:1009A8000E949B0C0E94A60CACE2B0E0E1E40E941D
:1009B800AA0C0E94AF0C0E94960CE13411F4D5D019
:1009C8000BC00E94960CE23411F4D2D005C00E94EC
:1009D800960CEA3509F4D7D00E94960CE13419F048
:1009E800E23409F0ABC00E94B40CE130A0E0FA0791
:1009F80019F4E5E0F0E011C00E94B40CE230A0E088
:100A0800FA0719F4E3E0F0E008C00E94B40CE33000
:100A1800A0E0FA0731F4E1E0F0E0FA93EA930E94EB
:100A2800B90C0E94BD0C29F40E949B0C0E94A60CD4
:100A380007C00E94C80C59F40E949B0C0E94CE0C5F
:100A4800E1E0F0E00E94A00CA8ECB0E0ADDD0E946F
:100A5800D20C29F40E94E10C0E94A60C07C00E9447
:100A6800C80C21F40E94E10C0E94CE0C0E94B40C28
:100A780033976CF50E94B40C31960E94DE0D0E94EB
:100A8800E60C0E94BD0C29F40E949B0C0E94A60C47
:100A980007C00E94C80C59F40E949B0C0E94CE0CFF
:100AA800E1E0F0E00E94A00CA8ECB0E07DDD0E943F
:100AB800D20C29F40E94E10C0E94A60C07C00E94E7
:100AC800C80C21F40E94E10C0E94CE0CCFCF0E94EA
:100AD800B40CE130A0E0FA0719F4E5E0F0E011C049
:100AE8000E94B40CE230A0E0FA0719F4E3E0F0E069
:100AF80008C00E94B40CE330A0E0FA0731F4E1E04A
:100B0800F0E0FA93EA930E94B90C0E949B0C0E94B1
:100B1800A60C0E94960CE13411F445D005C00E9441
:100B2800960CE23409F442D0E0EDEA93A0ED06DD3C
:100B3800A2E3B0E0F7DBA8ECB0E015C00E94960C89
:100B4800EA3591F4E0EDEA93A0EDF8DCAEE5B1E02A
:100B5800E9DBE4ECF9E0FA93EA930E94CE0C0E94F8
:100B6800E60CA4EFB1E020DD0895E5E0F0E002C076
:100B7800E2E0F0E0FA93EA930E94B90C0E949B0C21
:100B88000E94CE0C08950E94E60C0E949B0C0E94C5
:100B9800CE0CE1E0F0E0FA93EA930E949B0CA8ECFB
:100BA800B0E04CDE0895E5E0F0E002C0E2E0F0E0FD
:100BB800FA93EA930E94B90C0895AA93C398E9811D
:100BC800FA81E0938201F0938301E881E03021F417
:100BD800E0918401E03009F006C00E94E90CA4EE1F
:100BE800B0E00E94820BE981FA81309769F4E881CC
:100BF800E03011F0B4D08EC0E0E00E94920CA9EE73
:100C0800B0E00E94820B86C0E130A0E0FA0789F4C8
:100C1800E881E03021F4E0918401E03011F07CD0EB
:100C280079C0E0E00E94920CA3EFB0E00E94820B32
:100C380071C0E230A0E0FA0769F4E881E03011F011
:100C48000ED168C0E0E00E94920CABEFB0E00E94C9
:100C5800820B60C0E330A0E0FA0799F4E881E03045
:100C680021F4E0918401E03021F0A0E0B0E07FD0F1
:100C780051C0E0E00E94920CA6E0B1E00E94820B15
:100C880049C0E430A0E0FA0799F4E881E03021F4A3
:100C9800E0918401E03021F0A1E0B0E068D03AC0F2
:100CA800E0E00E94920CAFE0B1E00E94820B32C0FB
:100CB800E530A0E0FA0769F4E881E03011F06DD082
:100CC80029C0E0E00E94920CA9E1B1E00E94820BE9
:100CD80021C0E630A0E0FA0769F4E881E03011F0BD
:100CE80088D018C0E0E00E94920CAFE1B1E00E9409
:100CF800820B10C0E730A0E0FA0761F4E881E03029
:100D080011F0D7D007C0E0E00E94920CA6E2B1E053
:100D18000E94820B0C94930BE0918401E03071F4F3
:100D28000E94E90CA3EFB0E00E94ED0CACE2B1E048
:100D38000E94820BE1E0E093840110C0E0918401FD
:100D4800E03061F00E94370BE0E00E94920CADE3C6
:100D5800B1E00E94820B17DE0E94F10C089563DB5C
:100D68000E94FB0C82DB0E94FB0CA1DB3CC0BA9307
:100D7800AA93A881B981109711F0119709F403C0BB
:100D8800E0E0E883E983E881F981AAE2B0E00E9423
:100D9800DE0D0E94F10C0C94350B0E94E90CA8E4BE
:100DA800B1E00E94ED0CA3E5B1E00E94FF0C0E94A7
:100DB800060DE0E00E94920CAFE5B1E00E940E0D36
:100DC8000E94150DABE6B1E00E94FF0C0E94150DC4
:100DD800A7E7B1E00E940E0D0E94060DA8EEB3E051
:100DE800E3DB0E94E90CE0E0E09384010E941F0D20
:100DF8000895E0E00E94920CA3E8B1E00E94820B03
:100E0800E1E0E0938501E0918501E03039F19899BE
:100E180009C0E0E00E94F40BA3E9B1E00E94260DAE
:100E28000E941F0D999907C0E0E00E94F40BA3EA05
:100E3800B1E00E94820B9A9907C0E0E00E94F40B8F
:100E4800A3EBB1E00E94820B9B9907C0E0E00E94EF
:100E5800F40BA3ECB1E00E94820BD5CF08950E9459
:100E6800E90CABEFB0E00E94ED0CA3EDB1E00E94FD
:100E7800820BE1E0E09385016ADD0E942F0DA4E179
:100E8800B0E059DD69DDE0918501E03039F40E9478
:100E9800370BE6EEDE2E0E941F0D0AC0989907C098
:100EA800E0E00E94F40BAAEDB1E00E94260DEACF23
:100EB80008950E94E90CA5EEB1E00E94ED0CA0EFA8
:100EC800B1E00E94820BEDEEDE2EA4EFB1E02ADA4B
:100ED800E0E00E94920CABEFB1E00E94820BE6EEDC
:100EE800DE2E0E94FB0CE0E00E94920CA6E0B2E02D
:100EF8000E94820BE0EFCE2E0E94FB0CE0E00E94E5
:100F0800920CA0E1B2E00E94820BEAEECE2E0E9483
:100F1800FB0C089558DAE7E00E94F40B0E94F80BE6
:100F2800ECE8F0E0FA93EA93AAE2B0E00E94CE0D72
:100F38000E943E0C84E00E94840A28963CC00E94CD
:100F4800960CEF3431F0E13421F0E23411F0EA3557
:100F580009F405C0ACE2B0E0EFE40E94E60D0E949F
:100F6800B40CBF010F01DF01319759F0FD01329731
:100F780041F0F001339729F0FB01E430A0E0FA07D3
:100F880009F404C0ADE2B0E00E94AF0CEAE00E94B0
:100F9800920C0E94F80BECE2F2E0FA93EA930E94BA
:100FA800960C0E94FD0B0E94B40C0E943E0C88E037
:100FB8000E94840A2C96A0E6B1E00E94730B089563
:100FC800AA93EA93EFB7EA93E6E9E2BFE0918101D9
:100FD800EF5FE0938101A0918101DA1610F0AE98DD
:100FE80001C0AE9AA0918101CA1610F0AF9801C055
:100FF800AF9AE991EFBFE991A99118951895E0E0AA
:10100800EBBBEABBE8E0E8BBEFEFE7BBE5BBE0EF33
:10101800E4BBE1E0E2BBEEEFE1BBEAE4E3BFE6E913
:10102800E2BFE0E0ECBFE1EAEFBDE9E0EEBDE0E001
:10103800EDBDECBDE7BDE6BDEBBDEABDE9BDE8BD74
:10104800E2BDE5BDE4BDE3BDE5BFE4BFE3E0E9BF64
:10105800E0E8E8B9E0E0E0BFE5BFE4BFEAB9E0E610
:10106800E7B9E4E8E6B9E0B7EF71E0BFA0E10E94B4
:10107800A60B0E94370BC398E0E00E94F40BA1E393
:10108800B2E00E94ED0CA2E4B2E00E94820BA4EF51
:10109800B1E00E94E20E0E94370B7894EAEECE2E61
:1010A800E6EEDE2EAAE2B0E00E94CE0D309721F0E7
:1010B800E130A0E0FA0709F406C0AAE2B0E0E0E0F7
:1010C800F0E00E94DE0D0E94E90CA4EEB0E00E9460
:1010D800ED0CA9EEB0E00E94820BE0918401E030B3
:1010E80021F474D939DC16DF2ADF989919C0E09108
:1010F8008401E03021F4A2E8B1E00E94330DA09110
:101108008201B091830118972CF0E0E0E09382010E
:10111800E09383010E942F0D0E94390DA0E04DDD60
:10112800999906C00E94390DA1E047DD0E942F0D54
:101138009A9937C00E94B40C309719F40E94400D58
:1011480005C00E94B40C3196ADE2B0E00E94DE0DFD
:101158000E94B40C339724F00E94960CEF3409F0E7
:1011680003C00E94400D19C00E94B40C349724F0AB
:101178000E94960CEA3509F403C00E94400D0DC088
:101188000E94B40C349724F00E94960CEA3509F0BA
:1011980006C0ADE2B0E0E4E0F0E00E94DE0D0E949F
:1011A8002F0D9B9935C00E94960CEF3431F4ACE2B8
:1011B800B0E0E1E40E94E60D29C00E94960CE134FB
:1011C80081F4ACE2B0E0E2E40E94AA0C0E94CE0DE9
:1011D800E430A0E0FA0721F4ADE2B0E00E94AF0CE1
:1011E80015C00E94960CE23441F4ACE2B0E0EAE5A6
:1011F8000E94AA0CE4E0F0E007C0ACE2B0E0EFE443
:101208000E94AA0CE1E0F0E00E94DE0D0E942F0D82
:1012180064CFFFCFBA93AA931A930A93AA81BB818A
:1012280012960E94C10D309729F1AA81BB811496AC
:101238000E94C10D8F01309761F00230E0E01E0777
:1012480080F0F80131978F01AA81BB811496ED9344
:10125800FC93AA81BB8112960E94330D3197AC8111
:10126800A083AA81BB810E94C10DFF2312F00E94B6
:10127800330D06C0AA81BB81EFEFFFEFED93FC931E
:101288001981088125960895BA93AA9326970E94F2
:101298006B0D10E0AC85BD85E0E0F0E0ED93FC93CC
:1012A800EA89FB893196EA8BFB8B3197E4912E2FE3
:1012B800E03009F41DC1E12FE03039F4253211F492
:1012C80011E002C00E94450D12C1E130A9F4253297
:1012D80019F40E94450D0AC112E040E000E02D32E9
:1012E80011F401E004C12B3211F44BE200C12032A9
:1012F80011F440E2FCC002C0E23039F450E013E0DF
:10130800203311F40068F3C003C0E33009F0EFC0E4
:10131800203310F02A3308F007C0AAE05A9F502D56
:10132800E22FE0535E0FE3C0E22FE33649F40E9458
:101338004C0DE889F989A481AA930E94520DD6C060
:10134800E33741F40E944C0D0E94580D0E94C00AD8
:101358001E2F0AC0E03761F40E944C0D0E94580D00
:101368000E94CC0A1E2F086002600F7730E03CC054
:10137800E43611F0E93611F4046002C0E53731F4BF
:10138800E4E5F0E0EE83FF8315E00CC0E83511F4E6
:10139800086003C0E83709F0A9C0EEE5F0E0EE8385
:1013A800FF8314E002FF17C00E944C0DA889B98979
:1013B8001496ED91FD91EA87FB87AB85AA232AF461
:1013C8000E947D0DEA87FB874DE2403011F01F5FD8
:1013D80001C00B7F09C00E944C0DA889B9891496D9
:1013E8000E94C10DEA87FB8700FD11C0151778F42C
:1013F80007FF08C002FF04C00B7F242F115001C053
:1014080020E301C020E20E94450D5150EFCF312F5B
:1014180001FF17C03030A1F003FF06C0EE81FF8145
:101428002591EE83FF8305C0AE81BF812D91AE83E8
:10143800BF830E94450D503009F051503150EACF1A
:101448004BC020E3EE81FF810E94C50DE887F98734
:10145800EE81FF813296EE83FF83E885F985AA85C0
:10146800BB85AE17BF0750F02F5FA885B985EA8501
:10147800FB85EA1BFB0BEA87FB87EFCF2A3328F0B3
:1014880003FF02C0295F01C0295D04FD1AC0213392
:1014980020F4A885B985119709F409C0531710F0ED
:1014A80000FF01C013C020E207FF0BC020E300616A
:1014B80002FF07C00B7F4A930E94520D503009F07B
:1014C80051500E94450D503009F051503150A885B7
:1014D800B985129708F0B5CF00FF08C0503031F039
:1014E8005150E0E2EA930E94520DF8CF10E0D8CEB6
:1014F800AC85BD85ED91FD910E94720D64960895AD
:10150800FF92F82E26970E946D0DDE011C960E9410
:10151800790D0E94C10D309719F4EFEFFFEF27C046
:10152800DE0116960E94790D8D01DE011C960E943F
:10153800790DED91FD91EE83FF83E0E0E887E9877F
:10154800DE011A960E94790DED91FD91FA93EA93C6
:101558001A930A93EEE0F9E0FA93EA93DE011A96F9
:1015680093DE9F01AE81BF81E0E0EC93F9010E9418
:10157800740D2A96FF900895BA93AA93A991B991E8
:10158800EE27FF276D91662311F03196FBCF089562
:10159800BA93AA93AA27BB27E991F991059000204D
:1015A80011F01196FBCFFD010895BA93AA93E99122
:1015B800F99130971AF4E095F09531960895FFE087
:1015C800FA95F1F70895A7B3AF70A7BBC19AC09871
:1015D800F6DFC29AF4DFA6B3C298F1DFC29AEFDF52
:1015E800C298A7FDF5CF0895A07FAB2BA8BBC29AE0
:1015F8000E94E30AC2980E94E30A0895AA93C19838
:10160800A7B3A76FA7BBB8B3BF70A881EDDFA88148
:10161800A295EADFC19A0C94D80BC29A0E94E30AF9
:10162800E6B3C2980E94E30AE07F08950E94E30AA5
:10163800F4DFAE2FF2DFC198E295EA2B0895AA9362
:101648000E94E70AE881F0E0ED54FE4FE081A981AD
:10165800AE0F0E94020BE981E093B701E881E093A5
:10166800B801229608950E94E70AA2E00E94020BA0
:101678000E94E70AACE00E94020B0E94E70AA1E080
:101688000E94020BE0E0E093B801E093B7010895EF
:10169800AA93EF93FF93A8816894AA3039F0E8944D
:1016A800E091B901A091B701AE1758F0E091B801E7
:1016B800EF5FE093B801E0E0EA93A091B801BFDFE3
:1016C80056F0E091B701EF5FE093B7017CDFC09A75
:1016D800A8810E94020BFF91EF910C94D80BBA934A
:1016E800AA931A93A981BA81ED91A983BA831E2F6F
:1016F800E03019F0A12FCCDFF5CF10C0BA93AA9330
:101708001A93E981FA813196E983FA833197E49152
:101718001E2FE03019F0A12FBBDFF3CF18812396DD
:101728000895AA27BB271197F1F70895AA93C1989E
:10173800A7B3A76FA7BBB8B3BF70A8810E94F80A68
:10174800C19A32C0AA93C298C098E881E093B901BF
:10175800E058E093B501E881E054E093B6010E94B7
:10176800620D0E94620D0E94620DDBDFA0E2DEDFE7
:10177800D8DFA8E20E94670DA4E00E94670DA5E8E3
:101788000E94670DA7B3AF70A7BBC19A0E941A0B3E
:10179800E53011F0E0E008C00E94E70AA6E00E94E8
:1017A800020B0E94370BE1E021960895E7E0F0E094
:1017B8008E169F060895A82D0E948B010E2EF40107
:1017C800ACE1B0E0EE0FFF1FAE0FBF1F0E94CE0DC1
:1017D800A02DB0E00895EA9FF0016E0F7F1F0895D5
:1017E800EA93A0E00C94230BE0E6F1E0FA93EA9385
:1017F8000895FF27662777270E94C90D0895A0E658
:10180800B1E00C94730BF401A0E0B0E0EE0FFF1F01
:101818000895F0E00E94DE0DE0E0E2CF0E94820B26
:10182800E0E0EA93A1E00E94230BDECFE9E9F0E0D3
:10183800FA93EA93F4010E94890D0E94C90D089554
:10184800AE0FBF1F0E94CE0D0E94890D0E94C90DC8
:1018580088E00E94840A2C96D2CFC398A4E6B0E010
:101868000E94E20EC39A0895F401AEE0B0E0EE0FD4
:10187800FF1F08950E94890D0E94C90D0895AA931B
:10188800E881F0E0F9BDE8BDE981F0E0FBBDEABD23
:101898000895A881B9810E94F70D0895A881B9819A
:1018A8000C949601E881F9810E94890D0E94670EC7
:1018B80008950E94300EED93FC930895E0918D01F8
:1018C800F0918E010895E0919B01F0919C0108959B
:1018D800E0919901F0919A010895F0DFEC71EC31F3
:1018E8000895EA81EA93AB810E94B0020C94E70163
:1018F800EA81EA93AB810E94A9020C94E701BA93AA
:10190800AA93AAE2B0E00E94CE0D30970895EA812A
:10191800FB81FA93EA93AA81BB810895EA93A1E037
:101928000C94230BACE2B0E00E94D20D0895E0EDD8
:10193800F7E0FA93EA930895FA93EA93A0EDB7E0F3
:101948000C94FE03A8ECB0E00C9493040E94E60DFE
:10195800ADE2B0E00895E1E0F0E00E94DE0D089508
:10196800ADE2B0E00E94CE0D0895A0EDB7E00C9472
:10197800FE03E0E0E093AD01E093AE01E091AD013C
:10198800F091AE0130970895A091AD01B091AE01EC
:1019980011970895A8ECB0E00C948804E0EDEA9360
:1019A800A0ED0E94A202AEE5B1E00E949601E0918E
:1019B800AD01F091AE0130970895ECEAFDE0FA939D
:1019C800EA930895E2E0F0E0B7CF0E94370BE0E039
:1019D80007CF0E94820BE0E0A1CFE0E0E093840112
:1019E800E0E0F0E0FA93EA93A0E00C94E105A8EEB9
:1019F800B3E00C9496010E94820BE8EEF3E0FA93B0
:101A0800EA930895A8EEB3E00E94B702A0EDB7E00C
:101A18000C94E20E0E94820BE8E1FCEFFA93EA9341
:101A28000895A8E1BCEF0E94B702A0EDB7E00E94BC
:101A3800E20EE0E073CFE0E0F0E0FA93EA93A0E092
:101A48000C94E1050E94820BE0E0E0938501A4EF8D
:101A5800B1E00C949601A8ECB0E00C949601ED91DD
:101A6800FD913196FE93EE930895E0918201F091F5
:101A78008301FA93EA930895ADE2B0E0E1E0F0E083
:101A880008952A93AD85BE85EF85F889099508954F
:101A9800E889F9893497E88BF98B0895AD85BE8577
:101AA800EF85F88909950895A889B9891496ED9163
:101AB800FD91EE83FF83AE81BF8108950E94950B4F
:101AC800A0E30C949A0B0E94020B0C94950B5A936A
:101AD8004A933A932A931A930A9308955D814C8105
:101AE8003B812A811981088108950024AF0DB01D1A
:101AF8000895F195E195F0400895F09560957095F9
:101B0800E195FF4F6F4F7F4F08956F2F660F660B5C
:101B1800762F0895FA9FF02DEB9FF00DEA9FE02DA8
:101B2800F10D08951CD0F6DF0EF4E3DF08950024CC
:101B3800112490E1AA0FBB1F001C111C0E1A1F0ACA
:101B480018F40E0E1F1E01C0A1609A9599F7FD01A9
:101B5800D001089504D0EBDF0EF4CBDF0895E894AC
:101B6800F7FF02C0C6DF6894B7FF06C0B195A1951C
:101B7800B04000F8039400FA0895ED91FC91119794
:101B880008950590F491E02D08957A936A93FA9355
:101B9800EA930895119602D0FE2F1197E199FECF8E
:101BA800FF93FFB7F894AEBBBFBBE09AEDB3FFBF9E
:101BB800FF91089507D01196EF93EF2F03D0EF917F
:101BC80011970895E19B02C0A895FCCF9FB7F894A0
:101BD800AEBBBFBBE09A8DB3E81719F0EDBBE29A34
:101BE800E19A9FBF089500240A160B0608953097BE
:101BF8006040704009F070580895552342F45038F9
:101C080011F4E0FF04C03196691F791F6BF050E8AA
:101C1800572711F45F9373C05F3F31F0660F000CD4
:101C280057956795752F08955F9300200AF072C045
:101C38006BC050E8192E1522880F991F9527550F4C
:101C4800879550E8072E0522660F771F7527550FD1
:101C580067950895689401C0E8945F93F2DF70383F
:101C680018F07F3F08F44BC056E1571BAAF4519572
:101C780058300EF4593030F0EFEFFFEF6FEF7FE799
:101C880077F91AC077275523B9F0EE0FFF1F661FA3
:101C9800771F5A95D1F710C07727583028F0EF2FC3
:101CA800F62F672F5850F9CF552331F07695679561
:101CB800F795E7955A95D1F700200AF41EDF5F9152
:101CC8000895689401C0E894309760407040B1F07E
:101CD800002426F0772312F400940FDF172E7EE1FC
:101CE800112032F07A95EE0FFF1F661F111CF9CFF5
:101CF800EF2FF62F612D5F938ADF5F910895EE270E
:101D0800FF27BF015F910895EFEFFFEF6FE77FEFC8
:101D18005F910895EFEFFFEF6FE77FE75F91089519
:101D28005F9387DF703859F3903849F3012408949A
:101D3800791F23F424F300203AF3ECCF0F921F937A
:101D48002F933F934F93112722279927689FA0012C
:101D58008F9F302D410D591F6B9F300D411D591F0D
:101D68008E9F27D0BF9F25D06A9F23D0BE9F1DD0AE
:101D7800AF9F1BD0AE9F110D291F391F491F591F37
:101D8800E32FF42F652F522F4F913F912F911F91E1
:101D98000F9066232AF0550FEE1FFF1F661F02C023
:101DA80073954BF22ADF5F910895100D211D391F9D
:101DB80002C0200D311D491F591F0895109639F092
:101DC800A8958DEC9AE00197F1F71197C9F7089556
:00000001FF
