:0E0000000C94DF000C9400000C9400000C9493
:10000E0000000C9400000C9400000C9400000C9462
:10001E0000000C9400000C94E2040C9400000C946C
:10002E0000000C9400000C9400000C9400000C9442
:10003E0000000C9400000C9400000C9400000C9432
:10004E0079050C9400001027E80364000A000100F3
:10005E0000100001100001000000E400A300B90030
:10006E00CF00D000BC00C700E600E6000100000093
:10007E00000000000000E30043454B2053454E5363
:10008E004F522020002564256425642564256425AF
:10009E006425640042616361204C696E650073657E
:1000AE006E736F723A2564203D2025642020004235
:1000BE00616361204261636B67726F756E640043AA
:1000CE00656E74657220506F696E7420202020005A
:1000DE0073656E736F723A2564202D2D3E20256454
:1000EE0020200064617461206B65203D2025642012
:1000FE000073656E73696E67203D202564202000B5
:10010E002564202020004B554E494E4720202000CC
:10011E00424952552020202020004D455241482072
:10012E002020200048494A415520202020004646E4
:10013E00204F6E6C696E6553686F7000526F626F00
:10014E00742041544D656761313641006D756C61A7
:10015E00692063656B20706F696E743A0000010050
:10016E002D4E414E00494E46000080C00100020057
:10017E006600010060016800010062016A00010072
:10018E0064016C00010066016E00010068017000E0
:10019E0001006A01720001006C0174000A00040083
:1001AE007C000100A0016C010200A4017801000096
:1001BE00F894EE27ECBBF1E0FBBFEBBFE5BFF8E137
:1001CE00F1BDE1BD8DE0A2E0BB27ED938A95E9F785
:1001DE0080E094E0A0E6ED930197E9F7EAE7F1E01D
:1001EE0085919591009761F0A591B5910590159027
:1001FE00BF01F00105900D920197E1F7FB01F0CFE1
:10020E00EFE5EDBFE4E0EEBFC0E6D1E00C947A0579
:10021E00AA93E881E066E7B9369A349BFECF349A0A
:10022E00E5B121960895E9EE0E94B209E6D3E2EE19
:10023E00E09393010895E7EF0E94B809E3EF0E945F
:10024E00B209E2EE0E94B809E9EEE0939201089538
:10025E000E94BE090E94C3090E94C609E4DF0E94E3
:10026E00CC090E94C3090E94D1090E94E70985D1D9
:10027E000E94CC090E94EE090E94F2090E94F60922
:10028E0090D10E94F209D7DF0E94F2090E94FD0967
:10029E000E94060A0E94BE090E94EE090E94060AEA
:1002AE00F1C10E94BE090E94C3090E940E0A0E945B
:1002BE00CC090E94110ABFDF0E94140A0E94140A80
:1002CE00E1C10E941C0A0E94200A94F40E94250A91
:1002DE0019F00E942A0AFACF0E94250A41F40E94C0
:1002EE00300A0E94250A11F00E94370AF5CFEBCF93
:1002FE005AC3BA93AA93949A959A92989398969869
:10030E0097980E943D0A2EC10E94410A0E94470AF8
:10031E001797ACF40E944C0AEA17FB0724F40E94CC
:10032E00600AA1E008C00E944C0AAE17BF0724F471
:10033E000E94600AA0E0A0830E94670AE7CF08959A
:10034E00E0919B01A0E4EA02602DE0919A01A0E207
:10035E00EA02F0016E0FE0919901A0E1EA02F001CC
:10036E00A62FAE0FE0919801EE0FEE0FEE0FAE0F2F
:10037E00E0919701EE0FEE0FAE0FE0919601EE0FAA
:10038E00EA0FA0919501EA0FE0939F010895BCDF5B
:10039E00D7DF0E946F0AA6E8B0E00E94740AE3E974
:1003AE00F0E0FA93EA93E09195010E94800AE091C1
:1003BE0096010E94800AE09197010E94800AE091C6
:1003CE0098010E94800AE09199010E94800AE091B2
:1003DE009A010E94800AE0919B010E94800A8CE1A2
:1003EE000E946E08A0960E94860A08950E948A0AAC
:1003FE00E881F9810E94470AAE17BF074CF4C398F3
:10040E000E948D0AC39A0E948D0A0E94670AF0CF3D
:10041E00A9C00E94910A929A93989698979AA2C010
:10042E000E94910A9298939A969A97989BC00E94CE
:10043E00910A9298939A9698979A94C00E94910ACC
:10044E00929A9398969A97988DC00E948A0A0E94C3
:10045E00470A179704F50E949B0A0E94A00AEA0F0A
:10046E00FB1FFF93EF93A0919001D2DEAF91BF914E
:10047E000E94A50AA2EAB0E00E94740A0E94A90A8C
:10048E000E94A00A0E94B30AC3980E943D0AC39A12
:10049E000E94670ADCCF66C00E948A0A0E94470A41
:1004AE00179704F50E94C00AEA0FFB1FFF93EF9304
:1004BE00A0919001ADDEAF91BF910E94A50AADEB68
:1004CE00B0E00E94740A0E94A90AA4E1B0E0EE0F07
:1004DE00FF1F0E94B30AC3980E943D0AC39A0E944E
:1004EE00670ADCCF3FC00E948A0A0E94470A17970C
:1004FE00CCF50E94C60AEA0FFB1FBF010E94C00A7C
:10050E00AE0FBF1F0E94D00B0F010E949B0A0E94CC
:10051E00A00AAE0FBF1F0E94D00BD001AE0FBF1F9F
:10052E00E2E0F0E00E94B00BDB010E94E00B0E94C3
:10053E006F0AADECB0E00E94740AEEEDF0E0FA93B3
:10054E00EA930E949B0A0E94980B0E94CB0B0E947A
:10055E00C60A0E94B30AC3980E943D0AC39A0E941B
:10056E00670AC3CF229608950E941C0A0E94CC0AE5
:10057E0019F00E94D10AFACF18C20E941C0A0E94DA
:10058E00CC0A19F00E94D10AFACF0E94CC0A19F4B3
:10059E000E94D10AFACF0E94F209A5E00E94D80A61
:1005AE0004C20E941C0A0E94DB0A19F00E94E00A93
:1005BE00FACF0E94DB0A19F40E94E00AFACF0E94D9
:1005CE00CC0A19F00E94E00AFACF0E94F209A3E0C9
:1005DE000E94D80AEAC10E941C0A0E94DB0A19F086
:1005EE000E94E00AFACFE1C10E941C0A0E94DB0AB7
:1005FE0019F00E94E70AFACF0E94DB0A19F40E9452
:10060E00E70AFACFD2C10E94BE090E94C3090E9416
:10061E000E0A0E94CC090E94110A0E94E709DBDF34
:10062E000E94BE090E94EE090E94F609A6DF0E94F2
:10063E00F20901DE0E94F2090E94FD090E94EE0AF3
:10064E000E94BE090E94F60A56D10E94F90A1AC0EB
:10065E000E94BE090E94C3090E940E0A0E94CC0984
:10066E000E94110AE4EBEA93A4EBE8DEACE2B1E0FF
:10067E000E94860B0E94F209DEDD0E94EE0A0E94A5
:10068E00E7097BDFE1E0F0E0FA93EA930E94F60AD5
:10069E0018DEE2E0F0E0FA93EA93AEEBB0E043D17D
:1006AE000E94BE09ACED0E94010BA3E00E94D80A85
:1006BE00A4EBB0E055D10E94F20908950E941C0AE5
:1006CE00E0919F01EF770E94040BE130A0E0FA0762
:1006DE0029F4E881E4560E94080B89C0E330A0E0BB
:1006EE00FA0719F40E940F0B82C0E730A0E0FA0758
:1006FE0019F40E940F0B7BC0E230A0E0FA0719F448
:10070E000E94120B74C0E630A0E0FA0719F40E94A2
:10071E00120B6DC0EE30A0E0FA0719F40E94120B16
:10072E0066C0E430A0E0FA0729F4E881E4510E94A3
:10073E00080B5DC0EC30A0E0FA0729F4E881EA501E
:10074E000E94080B54C0E830A0E0FA0729F4E881B3
:10075E00EA93A9815EDE4BC0E831A0E0FA0719F4F6
:10076E000E94150B44C0E031A0E0FA0729F40E9464
:10077E001E0B0E94230B3BC0E833A0E0FA0719F4CE
:10078E000E94280B34C0E033A0E0FA0719F40E944F
:10079E00280B2DC0E032A0E0FA0719F40E94280BB6
:1007AE0026C0E037A0E0FA0719F40E942D0B1FC0F7
:1007BE00E036A0E0FA0719F40E942D0B18C0E034C1
:1007CE00A0E0FA0739F4E881EA93A981A4560E94C1
:1007DE00230B0DC0309759F420FE06C0E881E4517A
:1007EE00EA93A9812BDE03C00E941E0B20DE0C941F
:1007FE000D090E941C0AE0919F01EE730E94040BEA
:10080E00E230A0E0FA0729F4E881EC580E94080BC8
:10081E0070C0E630A0E0FA0719F40E940F0B69C011
:10082E00EE30A0E0FA0719F40E94120B62C0E43019
:10083E00A0E0FA0729F4E881E4510E94080B59C0A0
:10084E00EC30A0E0FA0729F4E881EA500E94080B88
:10085E0050C0EC31A0E0FA0719F40E94320B48C0E8
:10086E00E830A0E0FA0719F40E94320B41C0E831DB
:10087E00A0E0FA0719F40E94150B3BC0E031A0E08E
:10088E00FA0729F40E941E0B0E94230B32C0E83394
:10089E00A0E0FA0719F40E94280B2BC0E033A0E069
:1008AE00FA0719F40E942D0B24C0E032A0E0FA07DB
:1008BE0039F4E881EA93A981AC580E94230B19C040
:1008CE00EF37A0E0FA0789F0309719F40E94320B47
:1008DE000FC0ED36A0E0FA0741F0EB37A0E0FA07C3
:1008EE0021F0EB35A0E0FA0721F4E881EA93A98123
:1008FE0090DD0C940D090E941C0A0E94200A94F4AB
:10090E000E94370B19F00E942A0AFACF0E94370B69
:10091E0041F40E94300A0E94370B11F00E94370AF0
:10092E00F5CFEBCF40C00E941C0A0E94200ABCF4F7
:10093E000E943C0B19F00E94410BFACF0E943C0B17
:10094E0069F425DDC398A881B98153DF0E943C0B61
:10095E0021F0F20131962F01C39AF0CFE6CF23C0DA
:10096E000E941C0A0E943C0B19F00E94410BFACF08
:10097E000E94F2090C940D090E941C0A0E94200A82
:10098E0094F40E94CC0A19F00E942A0AFACF0E940F
:10099E00CC0A41F40E94300A0E94CC0A11F00E9447
:1009AE00370AF5CFEBCF4424552424960895C398E7
:1009BE000E94F209FDCFAA93EA93EFB7EA93E6E914
:1009CE00E2BFE0919401EF5FE0939401E091920118
:1009DE00A0919401EA1710F0AE9801C0AE9AE09182
:1009EE009301A0919401EA1710F0AF9801C0AF9A4D
:1009FE00E991EFBFE991A9911895A7E009DCAE2E18
:100A0E00BB24E0E0EA93A1E00E94FB08EEE6F1E0F1
:100A1E00FA93EA93EEE0F1E0FA93EA93F401662793
:100A2E0077270E94470B0E948D0AE0916201F09198
:100A3E006301AE16BF0638F0E0916401F0916501D6
:100A4E00EA15FB0508F408C00E946F0AA4E1B1E0A4
:100A5E000E945A09EBE442C0E0916A01F0916B01E9
:100A6E00AE16BF0638F0E0916C01F0916D01EA15FB
:100A7E00FB0508F408C00E946F0AAEE1B1E00E94C7
:100A8E005A09E2E42BC0AC14BD0438F0E0916001C9
:100A9E00F0916101EA15FB0508F408C00E946F0A87
:100AAE00A8E2B1E00E945A09EDE418C0E091660197
:100ABE00F0916701AE16BF0638F0E0916801F09133
:100ACE006901EA15FB0508F408C00E946F0AA2E34B
:100ADE00B1E00E945A09E8E401C0E8E5E0938F0115
:100AEE00F0E008951895E0E0EBBBEABBE8E0E8BB68
:100AFE00EFEFE7BBE5BBE0EFE4BBE1E0E2BBEEEF1F
:100B0E00E1BBEAE4E3BFE6E9E2BFE0E0ECBFE1EA25
:100B1E00EFBDE9E0EEBDE0E0EDBDECBDE7BDE6BD4D
:100B2E00EBBDEABDE9BDE8BDE2BDE5BDE4BDE3BD9B
:100B3E00E5BFE4BFE3E0E9BFE0E8E8B9E0E0E0BF2D
:100B4E00E5BFE4BFEAB9E0E6E7B9E4E8E6B9E0B745
:100B5E00EF71E0BFA0E10E947E090E940F09C398C9
:100B6E000E946F0AACE3B1E00E945A09E0E0EA93FA
:100B7E00A1E00E94FB08AAE4B1E00E945A09A8EE87
:100B8E00B3E00E94860B0E940F097894989919C0C1
:100B9E000E944E0B5ADCACEDB5E00E94860BE0EAEB
:100BAE00EA93A0EA36DC0E94F60A0E94860B0E94A7
:100BBE00F2090E944E0B70DC0E944E0B94DC0E94D8
:100BCE000F09E2EEE0939301E3EFE093920198991F
:100BDE002AC0E7EFE093930110DFA0918F01AB34B1
:100BEE0029F40E946F0AA4E1B1E01AC0A0918F010E
:100BFE00A23429F40E946F0AAEE1B1E011C0A091B7
:100C0E008F01AD3429F40E946F0AA8E2B1E008C04A
:100C1E00A0918F01A83431F40E946F0AA2E3B1E0D3
:100C2E000E945A09D9CF99991EC0F30131963F01FE
:100C3E000E94F60A0E94860BC3980E946F0AAAE5CC
:100C4E00B1E00E94740AE8EBF0E0FA93EA93F30144
:100C5E000E94980B0E94470BE4E1F0E06E167F06AF
:100C6E0014F0662477249A9946C00E940F09C39AFD
:100C7E00F301E130A0E0FA0721F1E230A0E0FA073B
:100C8E0009F1E330A0E0FA07F1F0E430A0E0FA0752
:100C9E00F1F0E530A0E0FA0719F1E630A0E0FA072E
:100CAE0031F1E730A0E0FA0711F1E830A0E0FA07E1
:100CBE0001F1E930A0E0FA07E9F0EA30A0E0FA0726
:100CCE00C9F0FFCFFFCFAAEAB0E04ADEFCCFE2E0E8
:100CDE00F0E0FA93EA93A6E90E94010B68DEF7CFE3
:100CEE000E94BE09A6E90E94010B61DEF9CF85DEE6
:100CFE00FECFFFCFBDCF9B9971C00E940F09C39A43
:100D0E00F301E130A0E0FA0711F441DB1EC0E2303E
:100D1E00A0E0FA0711F43BDB39C0E330A0E0FA079C
:100D2E0011F435DB33C0E430A0E0FA0711F42FDB09
:100D3E002DC0E530A0E0FA0711F429DB27C0E6301C
:100D4E00A0E0FA0711F423DB1AC0C398EEEBEA9386
:100D5E00AEEB66DBACE2B1E00E94860BE3ECF0E0BA
:100D6E00FA93EA93A3ECB0E03FDC0E94F90A0E94EA
:100D7E00F2090E94BE09ACEDB0E00E940E0A0E947C
:100D8E00F90A0CC0AAE00E94D80A11DEDECF0E943A
:100D9E00BE09A6E90E94010B0ADEF9CFA0918F01D0
:100DAE00AB3411F455DAEECFA0918F01A23411F4C9
:100DBE0078DAE8CFA0918F01AD3411F449DCE2CF9F
:100DCE00A0918F01A83411F41EDCDCCFA0918F010D
:100DDE00A83519F412DE17DCD5CF92CFF8CEFFCF9F
:100DEE00BA93AA931A930A93AA81BB8112960E9470
:100DFE00C30B309759F1AA81BB8114960E94C30B85
:100E0E008F01309761F00230E0E01E07F0F0F8013C
:100E1E0031978F01AA81BB811496ED93FC93AA8121
:100E2E00BB811296ED91FD913196FE93EE93319723
:100E3E00AC81A083AA81BB810E94C30BFF232AF041
:100E4E00ED91FD913196FE93EE9306C0AA81BB8182
:100E5E00EFEFFFEFED93FC9319810881259608952E
:100E6E00BA93AA9326970E94F90B10E0AC85BD8524
:100E7E00E0E0F0E0ED93FC93EA89FB893196EA8B92
:100E8E00FB8B3197E4912E2FE03011F40C94660811
:100E9E00E12FE03039F4253211F411E002C00E9446
:100EAE00510B0CC1E130A9F4253219F40E94510BFB
:100EBE0004C112E040E000E02D3211F401E0FEC06A
:100ECE002B3211F44BE2FAC0203211F440E2F6C09C
:100EDE0002C0E23039F450E013E0203311F4006820
:100EEE00EDC004C0E33011F00C946508203310F00F
:100EFE002A3308F007C0AAE05A9F502DE22FE05384
:100F0E005E0FDCC0E22FE33649F40E94580BE889ED
:100F1E00F989A481AA930E945E0BCFC0E33741F4F6
:100F2E000E94580B0E94640B0E94A2081E2F0AC03A
:100F3E00E03761F40E94580B0E94640B0E94AE08C9
:100F4E001E2F086002600F7730E035C0E43611F0D6
:100F5E00E93611F4046002C0E53731F4E4E5F0E05F
:100F6E00EE83FF8315E00DC0E83511F4086004C070
:100F7E00E83711F00C946408EEE5F0E0EE83FF83A1
:100F8E0014E002FF14C00E94580B0E946E0BAB853A
:100F9E00AA233AF4EA85FB850E94940BEA87FB8725
:100FAE004DE2403011F01F5F01C00B7F04C00E9464
:100FBE00580B0E946E0B00FD11C0151778F407FF39
:100FCE0008C002FF04C00B7F242F115001C020E384
:100FDE0001C020E20E94510B5150EFCF312F01FF83
:100FEE0017C03030A1F003FF06C0EE81FF812591BE
:100FFE00EE83FF8305C0AE81BF812D91AE83BF838B
:10100E000E94510B503009F051503150EACF4BC075
:10101E0020E3EE81FF810E94C70BE887F987EE81FE
:10102E00FF813296EE83FF83E885F985AA85BB851D
:10103E00AE17BF0750F02F5FA885B985EA85FB85EF
:10104E00EA1BFB0BEA87FB87EFCF2A3328F003FF5F
:10105E0002C0295F01C0295D04FD1AC0213320F4AE
:10106E00A885B985119709F409C0531710F000FF30
:10107E0001C013C020E207FF0BC020E3006102FF96
:10108E0007C00B7F4A930E945E0B503009F05150FF
:10109E000E94510B503009F051503150A885B9853E
:1010AE00129708F0B5CF00FF08C0503031F0515004
:1010BE00E0E2EA930E945E0BF8CF10E0DDCEAC8545
:1010CE00BD850E94C30B0E94000C64960895FF928A
:1010DE00F82E26970E94FB0B0E94760B309719F480
:1010EE00EFEFFFEF23C0DE0116960E94900B8D01ED
:1010FE000E94760BEE83FF83E0E0E887E987DE014E
:10110E001A960E94900B0E94C30BFA93EA931A93BD
:10111E000A93E7EFF6E0FA93EA93DE011A96A0DE61
:10112E009F01AE81BF81E0E0EC93F9010E94020CB9
:10113E002A96FF900895BA93AA93A991B991EE2792
:10114E00FF276D91662311F03196FBCF0895BA9368
:10115E00AA93AA27BB27E991F9910590002011F0D7
:10116E001196FBCFFD010895FFE0FA95F1F7089572
:10117E00A7B3AF70A7BBC19AC098F6DFC29AF4DFCF
:10118E00A6B3C298F1DFC29AEFDFC298A7FDF5CFE2
:10119E000895A07FAB2BA8BBC29A0E94BB08C29831
:1011AE000E94BB080895AA93C198A7B3A76FA7BBC7
:1011BE00B8B3BF70A881EDDFA881A295EADFC19A0E
:1011CE000C94B009C29A0E94BB08E6B3C2980E9462
:1011DE00BB08E07F08950E94BB08F4DFAE2FF2DF5C
:1011EE00C198E295EA2B0895AA930E94BF08E88160
:1011FE00F0E0EC55FE4FE081A981AE0F0E94DA08B7
:10120E00E981E093A801E881E093A901229608956F
:10121E000E94BF08A2E00E94DA080E94BF08ACE05C
:10122E000E94DA080E94BF08A1E00E94DA08E0E0FE
:10123E00E093A901E093A8010895AA93EF93FF9379
:10124E00A8816894AA3039F0E894E091AA01A0919F
:10125E00A801AE1758F0E091A901EF5FE093A90144
:10126E00E0E0EA93A091A901BFDF56F0E091A8015A
:10127E00EF5FE093A8017CDFC09AA8810E94DA0894
:10128E00FF91EF910C94B009BA93AA931A93A98186
:10129E00BA81ED91A983BA831E2FE03019F0A12FE8
:1012AE00CCDFF5CF10C0BA93AA931A93E981FA81D5
:1012BE003196E983FA833197E4911E2FE03019F0CD
:1012CE00A12FBBDFF3CF188123960895AA27BB2742
:1012DE001197F1F70895AA93C198A7B3A76FA7BB6B
:1012EE00B8B3BF70A8810E94D008C19A32C0AA9329
:1012FE00C298C098E881E093AA01E058E093A60155
:10130E00E881E054E093A7010E947D0B0E947D0BC3
:10131E000E947D0BDBDFA0E2DEDFD8DFA8E20E94B9
:10132E00820BA4E00E94820BA5E80E94820BA7B359
:10133E00AF70A7BBC19A0E94F208E53011F0E0E051
:10134E0008C00E94BF08A6E00E94DA080E940F099A
:10135E00E1E021960895E0939201A4EFB1E00C94A0
:10136E00860BE0939301A8ECB0E00C94860BE1E0C1
:10137E00F0E0FA93EA930895A9EBB0E008950E9485
:10138E006801A4EFB1E00C948001E3E0F0E0FA9381
:10139E00EA9308950E949A04AAEAB0E00E94B70464
:1013AE00A4E6B0E00E948001E0EAF0E0FA93EA934E
:1013BE00A0EAB0E00E94FB02A4E6B0E00C9480012B
:1013CE00EAEAF0E0FA93EA93AAEAB0E00895A8EC0C
:1013DE00B0E00C94C304A4E6B0E00C948001EEEBF4
:1013EE00F0E0FA93EA93AEEBB0E00895E0EAEA9308
:1013FE00A0EA0E941702A4E6B0E00C94860BE0EA85
:10140E00F0E0FA93EA93A0EAB0E00C94F2020E94A4
:10141E006801E1CFAEEBB0E0BDCFE0EAF0E0FA93C9
:10142E00EA93A0EAB0E00C94D802BA93AA930C9473
:10143E00CE01EA81FB814E165F060895E0919F0171
:10144E00EC71EC3108950E94CE01A881B9810C9403
:10145E0065030E94CE01C398A881B9810C946503DF
:10146E00F20131962F013197C39A0895A881B9815F
:10147E000C94860BE0E0E0939001E09391010895C7
:10148E00A0919001B09191010895A09190010E94B8
:10149E000F010E2EE0919001F0919101A8E2B0E0C3
:1014AE00EE0FFF1FAE0FBF1F0E94D00BA02DB0E09E
:1014BE000895E0919001F0919101EB56FE4F089541
:1014CE00A0E9B1E0ED91FD913196FE93EE93089572
:1014DE00E0E0EA93A0E00C94FB080E945A09E0E0D9
:1014EE00EA93A1E00E94FB08EEE6F1E0FA93EA939C
:1014FE000895FF27662777270E94CB0B0895AEE647
:10150E00B1E00C944B09BA93AA93B4CFA4E6B0E021
:10151E000C94860BAA93E881F0E0F9BDE8BDE98151
:10152E00F0E0FBBDEABD0895E0919001F0919101CC
:10153E000895A0E0B0E0EE0FFF1F0895F0E00E94C6
:10154E00E00BC6CFECEAF0E0FA93EA93EDDF0E94EF
:10155E00980B0E94CB0BE8CFAE0FBF1F0E94D00B93
:10156E000E94980B0E94CB0B88E00E946E082C966E
:10157E00C6CFDADFA4E1B0E0EE0FFF1F0895D4DF8F
:10158E00A8E2B0E0EE0FFF1F0895E0919F01E17019
:10159E00E13008950E94CE01EA81EA93A9810C946C
:1015AE002502B0E00C94FD01E0919F01E074E0345F
:1015BE0008950E94CE01EA81EA93A9810C941E023D
:1015CE000E94CE01EA81EA93A9810C941702E4EB02
:1015DE00F0E0FA93EA93A4EBB0E00C94C402A8EC0A
:1015EE00B0E00895E0EAF0E0FA93EA93A0EAB0E002
:1015FE000C94BB02B0E00C946801E0939F01F0E004
:10160E000895EA93A9810E941002689420F8089523
:10161E00E881E654F6CFE881E852F3CFE881EA9309
:10162E00A981AA500E941002E89420F80895E8813A
:10163E00EA93A981A45108950E941002E89420F81B
:10164E000895E881EA93A981A852F6CFE881EA933A
:10165E00A981A654F1CFE881EA93A981AD5F0895DF
:10166E00E0919F01E072E0320895E0919F01EF77E3
:10167E00E03008950E94CE01A881B9810C94000437
:10168E000E94CB0B84E00E946E08289638CFAAE009
:10169E00B0E008952A93AD85BE85EF85F88909954A
:1016AE000895E889F9893497E88BF98B0895AD850B
:1016BE00BE85EF85F88909950895A889B98914968C
:1016CE000E94C30BEE83FF83AE81BF810895A8896C
:1016DE00B98914960E94C30BEA87FB870895DE0131
:1016EE001C960E94900B0E94C30B08950E946D09D8
:1016FE00A0E30C9472090E94DA080C946D091096FE
:10170E0039F08DEC9AE00197F1F7A8951197C9F78A
:10171E0008950024AF0DB01D0895F195E195F040A8
:10172E0008956F2F660F660B762F089500241124EF
:10173E0090E1AA0FBB1F001C111C0E1A1F0A18F4F1
:10174E000E0E1F1E01C0A1609A9599F7FD01D001E2
:10175E00089504D0EBDF0EF4E0DF0895E894F7FF70
:10176E0002C0DBDF6894B7FF06C0A095B095119656
:10177E0000F8039400FA0895ED91FC9111970895E5
:10178E000590F491E02D08957A936A93FA93EA9373
:10179E000895119602D0FE2F1197E199FECFFF9377
:1017AE00FFB7F894AEBBBFBBE09AEDB3FFBFFF919E
:1017BE00089507D01196EF93EF2F03D0EF91119765
:1017CE000895E19B02C0A895FCCF9FB7F894AEBBDD
:1017DE00BFBBE09A8DB3E81719F0EDBBE29AE19A20
:1017EE009FBF08955A934A933A932A931A930A9352
:1017FE0008955D814C813B812A811981088108956C
:00000001FF
