:020000000C945E
:100002005A010C9400000C9400000C9400000C9413
:1000120000000C9400000C9400000C9400000C945E
:1000220000000C946A060C9400000C9400000C94DE
:1000320000000C9400000C9400000C9400000C943E
:1000420000000C9400000C9400000C9488060C94A0
:1000520000001027E80364000A00010000100001FC
:1000620010000100000000000A006400C80060FFE8
:10007200C800DC005000A500AA0005005500256458
:100082002564256425642564256425640042616332
:1000920061204C696E650073656E736F723A2564F8
:1000A200203D20256420200042616361204261637B
:1000B2006B67726F756E640043656E746572205073
:1000C2006F696E74202020200073656E736F723A20
:1000D2002564202D2D3E202564202000256420202B
:1000E20020004D656E750043616C696272617469CE
:1000F2006F6E0052756E20426F740053656E7320EE
:100102005761726E61004D61702042697275004DD7
:100112006170204D65726168004D6F746F720042AC
:100122007574746F6E00436170697400436C696327
:100132006B203220746F2073746172740052756E7A
:100142006E696E672E2E2E0054657374204D6F7487
:100152006F72002B31303030202B31303030002D97
:1001620031303030202D31303030002B31303030D2
:10017200202D31303030002D31303030202B3130D5
:10018200303000436C69636B203120746F206578D6
:10019200697400746F6D626F6C203D2031202020E5
:1001A200202000746F6D626F6C203D203220202071
:1001B200202000746F6D626F6C203D203320202060
:1001C200202000746F6D626F6C203D20342020204F
:1001D2002020005761726E613A0045786974696E39
:1001E200672E2E2E0054657374204361706974006B
:1001F20043617069743A203E203C00436170697427
:100202003A203C203E0043617069743A205C2F0022
:1002120043617069743A202F5C00486F6C6420312E
:1002220020746F20657869740058440020202020D3
:10023200204C4547494F4E202020202000204D4190
:100242004E2034204A4F4D42414E472000000100CB
:100252002D4E414E00494E46000080C0040004006D
:100262006600010093016A00010095016C00010023
:1002720097016E0002009901700001009B0172005B
:100282000100A10174000100A30176000100A50193
:1002920078000100A7017A000100A9017C00010099
:1002A200AB017E000100AD0150020200B1015C020F
:1002B2000000F894EE27ECBBF1E0FBBFEBBFE5BF1B
:1002C200F8E1F1BDE1BD8DE0A2E0BB27ED938A9597
:1002D200E9F780E094E0A0E6ED930197E9F7EEE517
:1002E200F2E085919591009761F0A591B591059005
:1002F2001590BF01F00105900D920197E1F7FB0106
:10030200F0CFEFE5EDBFE4E0EEBFC0E6D1E00C9444
:100312008906AA93E881E066E7B9369A349BFECF54
:10032200349AE5B121960895BA93AA93A881B98126
:100332000E94A70C73C1882499240E94EF09D4F467
:100342000E94F409EA17FB0734F4A6E8B1E0A80D0D
:10035200B91DE1E00AC00E94F409AE17BF0734F4E8
:10036200A6E8B1E0A80DB91DE0E0EC93F4013196E6
:100372004F01E3CF0895A0918C01E0E4EA9FB00120
:10038200A0918B01E0E20E94040AA0918A01E0E1BF
:100392000E94040AA0918901E8E00E94040AA09147
:1003A2008801E4E00E94040AA0918701E2E00E9431
:1003B200040AA0918601E1E0EA9FF001E60FF71F2F
:1003C200E0938D01F0938E010895B5DFD4DF089597
:1003D200B2DFE9E00E94090A0E940D0AE0E8F0E0BB
:1003E200FA93EA93E09186010E94120AE091870152
:1003F2000E94120AE09188010E94120AE09189018A
:100402000E94120AE0918A010E94120AE0918B0175
:100412000E94120AE0918C010E94120A8CE10E9451
:100422009908A09651C4882499240E94EF09D4F413
:100432000E94180AEA0FFB1FFF93EF93A82D69DFB2
:10044200AF91BF910E941E0AAFE8B0E00E94230A5A
:100452000E942B0A0E94180A0E94350AF401319662
:100462004F01E3CF0895882499240E94EF09D4F420
:100472000E944C0AEA0FFB1FFF93EF93A82D49DF5E
:10048200AF91BF910E941E0AAAEAB0E00E94230A1D
:100492000E942B0A0E944C0A0E94350AF4013196EE
:1004A2004F01E3CF0895882499240E94EF090CF0AC
:1004B20044C0F401ACE1B0E0EE0FFF1FEA0FFB1FF6
:1004C200BF010E944C0A0E94520A0F010E94180AA0
:1004D2000E94520AD001AE0FBF1FE2E0F0E00E947C
:1004E200730BDB010E94A30BE0E00E94090AAAEB56
:1004F200B0E00E94230AEBECF0E0FA93EA93F401F5
:100502000E944E0B0E948E0BF401ACE1B0E0EE0FA4
:10051200FF1F0E94520A0E944E0B0E948E0B88E01F
:100522000E9499082C96A0E6B1E00E948809C3981F
:10053200C39AF40131964F01B8CF08950E94570A29
:100542009298939A9698979A69C00E94570A929A9B
:100552009398969A979862C0BA93AA93AA81BB81FC
:100562000E94EE08FBBDEABDAA81BB810E94BC0BC2
:100572001CF4929A939802C09298939AA881B98196
:100582000E94EE08F9BDE8BD0E94610A1CF4979A28
:10059200969802C09798969A99C1BA93AA93949AF8
:1005A200959A9298939896989798A881B9810E9463
:1005B200A70C34C0BA93AA930E94660AAAE9B9E9C1
:1005C20089E19EE30E94590CA3E9B1E00E946D0A01
:1005D2000E94660AAAE9B9E989E19FE30E94590CDF
:1005E200A5E9B1E00E946D0AE881F981E0939701E3
:1005F200F09398010E94660AA0E0B0E080E49FE3D5
:100602000E94590C0E94C00BA9E9B1E00E946D0A38
:10061200E881F981E0939B01F0939C012296089571
:10062200BA93AA9322970E94300BA885B985C2DF9C
:100632000E94720AEF77F070E0938D01F0938E01C1
:100642000E94720AE130A0E0FA0719F4EAEFFFEF24
:1006520056C0E330A0E0FA0719F4EBEFFFEF4FC00A
:10066200E230A0E0FA0719F4ECEFFFEF48C0E63001
:10067200A0E0FA0719F4EDEFFFEF41C0E430A0E08B
:10068200FA0719F4EEEFFFEF3AC0EC30A0E0FA07F8
:1006920019F4EFEFFFEF33C0E830A0E0FA0731F4CE
:1006A200E0E0E0938F01E09390012DC0E831A0E0FB
:1006B200FA0719F4E1E0F0E022C0E031A0E0FA0725
:1006C20019F4E2E0F0E01BC0E033A0E0FA0719F40D
:1006D200E3E0F0E014C0E032A0E0FA0719F4E4E04D
:1006E200F0E00DC0E036A0E0FA0719F4E5E0F0E032
:1006F20006C0E034A0E0FA0731F4E6E0F0E0E0936F
:100702008F01F0939001A0919101B0919201E0913B
:100712008F01F0919001EA1BFB0B8F01E0918F0199
:10072200F0919001E0939101F0939201E091930195
:10073200F0919401A0918F01B09190010E945B0B06
:10074200BF01E0919501F0919601D8010E945B0BE7
:10075200E60FF71F9F01A0919701B0919801EA0F50
:10076200FB1FAF01E0919701F0919801E21BF30B9F
:10077200EE83FF830E94770AE417F50724F4409181
:100782009B0150919C010E947C0A4E175F0724F442
:100792004091990150919A010E94770AAE81BF81DE
:1007A200EA17FB0724F40E94770AEE83FF830E9474
:1007B2007C0AAE81BF81AE17BF0724F40E947C0A77
:1007C200EE83FF835A934A93A885B985C5DE0E94BA
:1007D200370B2A960895BA93AA93EA81FB814E16A3
:1007E2005F06D4F40E94810A29F0EFDDA881B98165
:1007F20017DFF8CF0E94810A71F4E7DDC398A88160
:10080200B9810EDF0E94810A29F0F20131962F018F
:100812003197C39AEFCFE1CF4424552457C0BA93FE
:10082200AA93D3DDE0918601E03021F4E0918701C3
:10083200E03019F00E94850AF5CFE0918601E030A0
:1008420021F4E0918701E03009F003C00E94850A9B
:10085200F4CF0E94610A1CF4A881B9819EDE36C0E1
:10086200BA93AA93B2DDE0918B01E03021F4E091DA
:100872008C01E03019F00E948C0AF5CFE0918B01D7
:10088200E03021F4E0918C01E03009F003C00E94D5
:100892008C0AF4CF0E94610A1CF4A881B9817DDE22
:1008A20015C00E94930A21F40E949B0AD9DF03C05B
:1008B2000E949B0AB4DF0AC00E94930A21F40E949C
:1008C2009B0AADDF03C00E949B0ACADF24960895EB
:1008D200BA93AA93EDEEDE2EA881B98125DDEAEE68
:1008E200CE2EA881B98120DD0C944A09E0EFCE2EEC
:1008F200E6EEDE2E0895A7E00CDD6E2E7724EDE005
:100902000E94A20A0E940D0AEEEDF0E0FA93EA9329
:10091200F30166277727D2C1E1E0F0E00E94A60A40
:10092200CBDFE5E0F0E00E94A60ABBDFE5E0F0E005
:10093200FA93EA93A0EDB7E04EDFA8ECB0E02DDE2B
:100942000895AA93C398E981FA81E0938201F09312
:100952008301E881E03021F4E0918401E03009F084
:1009620006C00E94B30AA4EEB0E00E949709E98192
:10097200FA81309769F4E881E03011F0B4D08EC08A
:10098200E0E00E94A20AA9EEB0E00E94970986C0A8
:10099200E130A0E0FA0789F4E881E03021F4E09147
:1009A2008401E03011F07CD079C0E0E00E94A20A1C
:1009B200A5EFB0E00E94970971C0E230A0E0FA070B
:1009C20069F4E881E03011F00ED168C0E0E00E94E5
:1009D200A20AADEFB0E00E94970960C0E330A0E048
:1009E200FA0799F4E881E03021F4E0918401E030E3
:1009F20021F0A0E0B0E07FD051C0E0E00E94A20A66
:100A0200A8E0B1E00E94970949C0E430A0E0FA07EB
:100A120099F4E881E03021F4E0918401E03021F0A2
:100A2200A1E0B0E068D03AC0E0E00E94A20AA1E1F1
:100A3200B1E00E94970932C0E530A0E0FA0769F4FC
:100A4200E881E03011F06DD029C0E0E00E94A20AF6
:100A5200ABE1B1E00E94970921C0E630A0E0FA07BD
:100A620069F4E881E03011F088D018C0E0E00E941B
:100A7200A20AA1E2B1E00E94970910C0E730A0E00B
:100A8200FA0761F4E881E03011F0D7D007C0E0E066
:100A92000E94A20AA8E2B1E00E9497090C94A80958
:100AA200E0918401E03071F40E94B30AA5EFB0E056
:100AB2000E94B70AAEE2B1E00E949709E1E0E0933A
:100AC200840110C0E0918401E03061F00E944C0981
:100AD200E0E00E94A20AAFE3B1E00E9497091CDFA6
:100AE2000E94BB0A08959FDC0E94C50ABCDC0E94DA
:100AF200C50AD9DC3CC0BA93AA93A881B9811097E0
:100B020011F0119709F403C0E0E0E883E983E8817A
:100B1200F981AAE2B0E00E94A30B0E94BB0A0C94E6
:100B22004A090E94B30AAAE4B1E00E94B70AA5E505
:100B3200B1E00E94C90A0E94D00AE0E00E94A20A23
:100B4200A1E6B1E00E94D80A0E94DF0AADE6B1E058
:100B52000E94C90A0E94DF0AA9E7B1E00E94D80AEE
:100B62000E94D00AA8EEB3E018DD0E94B30AE0E0CA
:100B7200E09384010E94E90A0895E0E00E94A20A3B
:100B8200A5E8B1E00E949709E1E0E0938501E091D8
:100B92008501E03039F1989909C0E0E00E94090A24
:100BA200A5E9B1E00E94F00A0E94E90A999907C0FA
:100BB200E0E00E94090AA5EAB1E00E9497099A9929
:100BC20007C0E0E00E94090AA5EBB1E00E94970984
:100BD2009B9907C0E0E00E94090AA5ECB1E00E94DF
:100BE2009709D5CF08950E94B30AADEFB0E00E94F5
:100BF200B70AA5EDB1E00E949709E1E0E093850113
:100C020075DE0E94F90AA4E1B0E062DE74DEE091D2
:100C12008501E03039F40E944C09E6EEDE2E0E9496
:100C2200E90A0AC0989907C0E0E00E94090AACEDFF
:100C3200B1E00E94F00AEACF08950E94B30AA7EE3B
:100C4200B1E00E94B70AA2EFB1E00E949709EDEE6F
:100C5200DE2EA4EFB1E068DBE0E00E94A20AADEF75
:100C6200B1E00E949709E6EEDE2E0E94C50AE0E09E
:100C72000E94A20AA8E0B2E00E949709E0EFCE2EFD
:100C82000E94C50AE0E00E94A20AA2E1B2E00E942C
:100C92009709EAEECE2E0E94C50A089596DBE7E098
:100CA2000E94090A0E940D0AECE8F0E0FA93EA9326
:100CB200AAE2B0E00E94930B0E944E0B0E948E0BA0
:100CC20084E00E9499082896A0E6B1E00E94880973
:100CD2000895AA93EA93EFB7EA93E6E9E2BFE091B7
:100CE2008101EF5FE0938101A0918101DA1610F09A
:100CF200AE9801C0AE9AA0918101CA1610F0AF98C9
:100D020001C0AF9AE991EFBFE991A99118951895A1
:100D1200E0E0EBBBEABBE8E0E8BBEFEFE7BBE5BB3B
:100D2200E0EFE4BBE1E0E2BBEEEFE1BBEAE4E3BF0C
:100D3200E6E9E2BFE0E0ECBFE1EAEFBDE9E0EEBDEB
:100D4200E0E0EDBDECBDE7BDE6BDEBBDEABDE9BD52
:100D5200E8BDE2BDE5BDE4BDE3BDE5BFE4BFE3E060
:100D6200E9BFE0E8E8B9E0E0E0BFE5BFE4BFEAB927
:100D7200E0E6E7B9E4E8E6B9E0B7EF71E0BFA0E189
:100D82000E94BB090E944C09C398E0E00E94090A34
:100D9200AEE2B2E00E94B70AAFE3B2E00E94970966
:100DA200A4EFB1E00E94A70C0E944C097894EAEEED
:100DB200CE2EE6EEDE2EAAE2B0E00E94930B309732
:100DC20021F0E130A0E0FA0709F406C0AAE2B0E09F
:100DD200E0E0F0E00E94A30B0E94B30AA4EEB0E0B0
:100DE2000E94B70AA9EEB0E00E949709E09184013F
:100DF200E03019F4EDDA7FDD51DF989919C0E09106
:100E02008401E03021F4A2E8B1E00E94FD0AA09141
:100E12008201B091830118972CF0E0E0E093820107
:100E2200E09383010E94F90A0E94030BA0E089DD8E
:100E3200999906C00E94030BA1E083DD0E94F90A82
:100E4200D5CFFFCFBA93AA931A930A93AA81BB81F3
:100E520012960E94860B309729F1AA81BB811496C3
:100E62000E94860B8F01309761F00230E0E01E078E
:100E720080F0F80131978F01AA81BB811496ED931E
:100E8200FC93AA81BB8112960E94FD0A3197AC8124
:100E9200A083AA81BB810E94860BFF2312F00E94CD
:100EA200FD0A06C0AA81BB81EFEFFFEFED93FC9331
:100EB2001981088125960895BA93AA9326970E94CC
:100EC200300B10E0AC85BD85E0E0F0E0ED93FC93E3
:100ED200EA89FB893196EA8BFB8B3197E4912E2FBD
:100EE200E03009F41DC1E12FE03039F4253211F46C
:100EF20011E002C00E940A0B12C1E130A9F42532AE
:100F020019F40E940A0B0AC112E040E000E02D32FF
:100F120011F401E004C12B3211F44BE200C1203282
:100F220011F440E2FCC002C0E23039F450E013E0B8
:100F3200203311F40068F3C003C0E33009F0EFC0BE
:100F4200203310F02A3308F007C0AAE05A9F502D30
:100F5200E22FE0535E0FE3C0E22FE33649F40E9432
:100F6200110BE889F989A481AA930E94170BD6C0B4
:100F7200E33741F40E94110B0E941D0B0E94D50819
:100F82001E2F0AC0E03761F40E94110B0E941D0B54
:100F92000E94E1081E2F086002600F7730E03CC01B
:100FA200E43611F0E93611F4046002C0E53731F499
:100FB200E4E5F0E0EE83FF8315E00CC0E83511F4C0
:100FC200086003C0E83709F0A9C0EEE5F0E0EE835F
:100FD200FF8314E002FF17C00E94110BA889B98990
:100FE2001496ED91FD91EA87FB87AB85AA232AF43B
:100FF2000E94420BEA87FB874DE2403011F01F5FEF
:1010020001C00B7F09C00E94110BA889B9891496EF
:101012000E94860BEA87FB8700FD11C0151778F442
:1010220007FF08C002FF04C00B7F242F115001C02C
:1010320020E301C020E20E940A0B5150EFCF312F72
:1010420001FF17C03030A1F003FF06C0EE81FF811F
:101052002591EE83FF8305C0AE81BF812D91AE83C2
:10106200BF830E940A0B503009F051503150EACF31
:101072004BC020E3EE81FF810E948A0BE887F9874B
:10108200EE81FF813296EE83FF83E885F985AA859A
:10109200BB85AE17BF0750F02F5FA885B985EA85DB
:1010A200FB85EA1BFB0BEA87FB87EFCF2A3328F08D
:1010B20003FF02C0295F01C0295D04FD1AC021336C
:1010C20020F4A885B985119709F409C0531710F0C7
:1010D20000FF01C013C020E207FF0BC020E3006144
:1010E20002FF07C00B7F4A930E94170B503009F092
:1010F20051500E940A0B503009F051503150A885CE
:10110200B985129708F0B5CF00FF08C0503031F012
:101112005150E0E2EA930E94170BF8CF10E0D8CECC
:10112200AC85BD85ED91FD910E94370B64960895C3
:10113200FF92F82E26970E94320BDE011C960E9427
:101142003E0B0E94860B309719F4EFEFFFEF27C09A
:10115200DE0116960E943E0B8D01DE011C960E9456
:101162003E0BED91FD91EE83FF83E0E0E887E98796
:10117200DE011A960E943E0BED91FD91FA93EA93DD
:101182001A930A93E3E2F7E0FA93EA93DE011A96DE
:1011920093DE9F01AE81BF81E0E0EC93F9010E94F2
:1011A200390B2A96FF900895BA93AA93A991B991FF
:1011B200EE27FF276D91662311F03196FBCF08953C
:1011C200BA93AA93AA27BB27E991F9910590002027
:1011D20011F01196FBCFFD010895BA93AA93E991FC
:1011E200F99130971AF4E095F09531960895FFE061
:1011F200FA95F1F70895A7B3AF70A7BBC19AC0984B
:10120200F6DFC29AF4DFA6B3C298F1DFC29AEFDF2B
:10121200C298A7FDF5CF0895A07FAB2BA8BBC29AB9
:101222000E94F808C2980E94F8080895AA93C198EB
:10123200A7B3A76FA7BBB8B3BF70A881EDDFA88122
:10124200A295EADFC19A0C94ED09C29A0E94F808AD
:10125200E6B3C2980E94F808E07F08950E94F80859
:10126200F4DFAE2FF2DFC198E295EA2B0895AA933C
:101272000E94FC08E881F0E0EF54FE4FE081A98172
:10128200AE0F0E941709E981E093B501E881E0936E
:10129200B601229608950E94FC08A2E00E94170956
:1012A2000E94FC08ACE00E9417090E94FC08A1E021
:1012B2000E941709E0E0E093B601E093B5010895BA
:1012C200AA93EF93FF93A8816894AA3039F0E89427
:1012D200E091B701A091B501AE1758F0E091B601C7
:1012E200EF5FE093B601E0E0EA93A091B601BFDFC1
:1012F20056F0E091B501EF5FE093B5017CDFC09A53
:10130200A8810E941709FF91EF910C94ED09BA93FD
:10131200AA931A93A981BA81ED91A983BA831E2F48
:10132200E03019F0A12FCCDFF5CF10C0BA93AA9309
:101332001A93E981FA813196E983FA833197E4912C
:101342001E2FE03019F0A12FBBDFF3CF18812396B7
:101352000895AA27BB271197F1F70895AA93C19878
:10136200A7B3A76FA7BBB8B3BF70A8810E940D092E
:10137200C19A32C0AA93C298C098E881E093B7019B
:10138200E058E093B301E881E054E093B4010E9495
:10139200270B0E94270B0E94270BDBDFA0E2DEDF78
:1013A200D8DFA8E20E942C0BA4E00E942C0BA5E837
:1013B2000E942C0BA7B3AF70A7BBC19A0E942F0942
:1013C200E53011F0E0E008C00E94FC08A6E00E94AF
:1013D20017090E944C09E1E021960895E7E0F0E048
:1013E2008E169F060895A82D0E948A010E2EF401E2
:1013F200ACE1B0E0EE0FFF1FAE0FBF1F0E94930BD8
:10140200A02DB0E00895EA9FF0016E0F7F1F0895AE
:10141200EA93A0E00C943809E0E6F1E0FA93EA934B
:101422000895FF27662777270E948E0B0895F401FF
:10143200A0E0B0E0EE0FFF1F0895F0E00E94A30BC2
:10144200E0E0E6CF0E949709E0E0EA93A1E00E9483
:101452003809E2CFE9E9F0E0FA93EA93F4010E9455
:101462004E0B0E948E0B0895AE0FBF1F0E94930B6E
:101472000E944E0B0E948E0B88E00E9499082C96C7
:10148200A0E6B1E00E948809C398A4E6B0E00E94F9
:10149200A70CC39A0895F401AEE0B0E0EE0FFF1F6F
:1014A2000895AE0FBF1F0E94930B0895AA93E8817F
:1014B200F0E0F9BDE8BDE981F0E0FBBDEABD0895C9
:1014C200A881B9810E94BC0B0895E881F9810E942C
:1014D2004E0B0E942C0C08950E94F50BED93FC9389
:1014E2000895E0918D01F0918E010895E0919B01A4
:1014F200F0919C010895E0919901F0919A0108956B
:10150200F0DFEC71EC310895EA81EA93AB810E943D
:10151200A6020C94E601EA81EA93AB810E949F0243
:101522000C94E601BA93AA93AAE2B0E00E94930B4C
:1015320030970895EA81FB81FA93EA93AA81BB81ED
:101542000895EA93A1E00C943809FA93EA93A0ED86
:10155200B7E00E94EC03E0EDF7E0FA93EA93A8EC1F
:10156200B0E008950E944C09E0E052CF0E94970932
:10157200E0E0E7CFE0E0E0938401E0E0F0E0FA931E
:10158200EA93A0E00C94A204A8EEB3E00C949501B7
:101592000E949709E8EEF3E0FA93EA930895A8EE21
:1015A200B3E00E94AD02A0EDB7E00C94A70C0E943C
:1015B2009709E8E1FCEFFA93EA930895A8E1BCEFFA
:1015C2000E94AD02A0EDB7E00E94A70CE0E0B9CF07
:1015D200E0E0F0E0FA93EA93A0E00C94A2040E9407
:1015E2009709E0E0E0938501A4EFB1E00C94950146
:1015F200A8ECB0E00C949501ED91FD913196FE932B
:10160200EE930895E0918201F0918301FA93EA93B7
:1016120008952A93AD85BE85EF85F88909950895C9
:10162200E889F9893497E88BF98B0895AD85BE85F1
:10163200EF85F88909950895A889B9891496ED91DD
:10164200FD91EE83FF83AE81BF8108950E94AA09B6
:10165200A0E30C94AF090E9417090C94AA095A93AB
:101662004A933A932A931A930A9308955D814C817F
:101672003B812A811981088108950024AF0DB01D94
:101682000895F195E195F0400895F0956095709573
:10169200E195FF4F6F4F7F4F08956F2F660F660BD7
:1016A200762F0895FA9FF02DEB9FF00DEA9FE02D23
:1016B200F10D08951CD0F6DF0EF4E3DF0895002447
:1016C200112490E1AA0FBB1F001C111C0E1A1F0A45
:1016D20018F40E0E1F1E01C0A1609A9599F7FD0124
:1016E200D001089504D0EBDF0EF4CBDF0895E89427
:1016F200F7FF02C0C6DF6894B7FF06C0B195A19597
:10170200B04000F8039400FA0895ED91FC9111970E
:1017120008950590F491E02D08957A936A93FA93CF
:10172200EA930895119602D0FE2F1197E199FECF08
:10173200FF93FFB7F894AEBBBFBBE09AEDB3FFBF18
:10174200FF91089507D01196EF93EF2F03D0EF91F9
:1017520011970895E19B02C0A895FCCF9FB7F8941A
:10176200AEBBBFBBE09A8DB3E81719F0EDBBE29AAE
:10177200E19A9FBF089500240A160B060895309738
:101782006040704009F070580895552342F4503873
:1017920011F4E0FF04C03196691F791F6BF050E825
:1017A200572711F45F9373C05F3F31F0660F000C4F
:1017B20057956795752F08955F9300200AF072C0C0
:1017C2006BC050E8192E1522880F991F9527550FC7
:1017D200879550E8072E0522660F771F7527550F4C
:1017E20067950895689401C0E8945F93F2DF7038BA
:1017F20018F07F3F08F44BC056E1571BAAF45195ED
:1018020058300EF4593030F0EFEFFFEF6FEF7FE713
:1018120077F91AC077275523B9F0EE0FFF1F661F1D
:10182200771F5A95D1F710C07727583028F0EF2F3D
:10183200F62F672F5850F9CF552331F076956795DB
:10184200F795E7955A95D1F700200AF41EDF5F91CC
:101852000895689401C0E894309760407040B1F0F8
:10186200002426F0772312F400940FDF172E7EE176
:10187200112032F07A95EE0FFF1F661F111CF9CF6F
:10188200EF2FF62F612D5F938ADF5F910895EE2788
:10189200FF27BF015F910895EFEFFFEF6FE77FEF43
:1018A2005F910895EFEFFFEF6FE77FE75F91089594
:1018B2005F9387DF703859F3903849F30124089415
:1018C200791F23F424F300203AF3ECCF0F921F93F5
:1018D2002F933F934F93112722279927689FA001A7
:1018E2008F9F302D410D591F6B9F300D411D591F88
:1018F2008E9F27D0BF9F25D06A9F23D0BE9F1DD029
:10190200AF9F1BD0AE9F110D291F391F491F591FB1
:10191200E32FF42F652F522F4F913F912F911F915B
:101922000F9066232AF0550FEE1FFF1F661F02C09D
:1019320073954BF22ADF5F910895100D211D391F17
:1019420002C0200D311D491F591F0895109639F00C
:10195200A8958DEC9AE00197F1F71197C9F70895D0
:00000001FF
