:080000000C945B010C9400005C
:100008000C9400000C9400000C9400000C94000068
:100018000C9400000C9400000C9400000C94AC06A6
:100028000C9400000C9400000C9400000C94000048
:100038000C9400000C9400000C9400000C94000038
:100048000C9400000C94CA060C9400001027E803D6
:1000580064000A0001000010000110000100000007
:1000680000000A006400C80060FFC800DC005000FF
:10007800A500AA00050055002564256425642564AB
:100088002564256425640042616361204C696E65BE
:100098000073656E736F723A2564203D20256420D5
:1000A800200042616361204261636B67726F756E05
:1000B800640043656E74657220506F696E74202009
:1000C80020200073656E736F723A2564202D2D3ED3
:1000D8002025642020002564202020004D656E75B1
:1000E800004B616C6962726173690052756E2042DF
:1000F8006F740053656E73205761726E61004D61B5
:10010800702042697275004D6170204D657261689A
:10011800004D6F746F7200427574746F6E004361A6
:1001280070697400436C69636B203220746F2073AC
:10013800746172740052756E6E696E672E2E2E0091
:1001480054657374204D6F746F72002B31303030EA
:10015800202B31303030002D31303030202D3130EF
:100168003030002B31303030202D31303030002D00
:1001780031303030202B3130303000436C69636BC4
:10018800203120746F206578697400746F6D626F18
:100198006C203D2031202020202000746F6D626F7C
:1001A8006C203D2032202020202000746F6D626F6B
:1001B8006C203D2033202020202000746F6D626F5A
:1001C8006C203D20342020202020005761726E6171
:1001D8003A0045786974696E672E2E2E005465734F
:1001E800742043617069740043617069743A203EF9
:1001F800203C0043617069743A203C203E00436112
:100208007069743A205C2F0043617069743A202F3A
:100218005C00486F6C64203120746F2065786974C5
:1002280000584400256325640020202020204C45E8
:1002380047494F4E202020202000204D414E203499
:10024800204A4F4D42414E47200001002D4E414E5D
:1002580000494E46000080C004000400660001000A
:1002680093016A00010095016C00010097016E007E
:1002780002009901700001009B0172000100A101B8
:1002880074000100A30176000100A50178000100B7
:10029800A7017A000100A9017C000100AB017E00E2
:1002A8000100AD0152020200B1015E020000F894A3
:1002B800EE27ECBBF1E0FBBFEBBFE5BFF8E1F1BD1A
:1002C800E1BD8DE0A2E0BB27ED938A95E9F780E0D8
:1002D80094E0A0E6ED930197E9F7E0E6F2E0859176
:1002E8009591009761F0A591B59105901590BF0182
:1002F800F00105900D920197E1F7FB01F0CFEFE5D2
:10030800EDBFE4E0EEBFC0E6D1E00C94CB06AA93C3
:10031800E881E066E7B9369A349BFECF349AE5B1B6
:1003280021960895BA93AA93A881B9810E94520D83
:100338007FC1882499240E948C0AD4F40E94910ACF
:10034800EA17FB0734F4A6E8B1E0A80DB91DE1E00F
:100358000AC00E94910AAE17BF0734F4A6E8B1E0BC
:10036800A80DB91DE0E0EC93F40131964F01E3CFFD
:100378000895A0918C01E0E4EA9FB001A0918B015F
:10038800E0E20E94A10AA0918A01E0E10E94A10A8C
:10039800A0918901E8E00E94A10AA0918801E4E007
:1003A8000E94A10AA0918701E2E00E94A10AA091FF
:1003B8008601E1E0EA9FF001E60FF71FE0938D0167
:1003C800F0938E010895B5DFD4DF0895B2DFE9E038
:1003D8000E94A60A0E94AA0AE0E8F0E0FA93EA93CB
:1003E800E09186010E94AF0AE09187010E94AF0A5E
:1003F800E09188010E94AF0AE09189010E94AF0A4A
:10040800E0918A010E94AF0AE0918B010E94AF0A35
:10041800E0918C010E94AF0A8CE10E943609A096F7
:1004280092C4882499240E948C0AD4F40E94B50AA4
:10043800EA0FFB1FFF93EF93A82D69DFAF91BF91E0
:100448000E94BB0AAFE8B0E00E94C00A0E94C80A36
:100458000E94B50A0E94D20AF40131964F01E3CFF7
:100468000895882499240E948C0AD4F40E94E90AE9
:10047800EA0FFB1FFF93EF93A82D49DFAF91BF91C0
:100488000E94BB0AAAEAB0E00E94C00A0E94C80AF9
:100498000E94E90A0E94D20AF40131964F01E3CF83
:1004A8000895882499240E948C0A0CF040C0F40115
:1004B800ACE1B0E0EE0FFF1FEA0FFB1FBF010E9487
:1004C800E90A0E94EF0A0F010E94B50A0E94EF0A8A
:1004D800D001AE0FBF1FE2E0F0E00E941E0CDB016E
:1004E8000E944E0CE0E00E94A60AAAEBB0E00E942F
:1004F800C00AEBECF0E0FA93EA93F4010E94F40AE4
:10050800F401ACE1B0E0EE0FFF1F0E94EF0A0E9479
:10051800F40A88E00E9436092C96A0E6B1E00E9411
:10052800250AC398C39AF40131964F01BCCF0895A8
:100538000E94F90A929A93989698979A79C00E947D
:10054800F90A9298939A9698979A72C00E94F90A13
:10055800929A9398969A97986BC0BA93AA93AA81FD
:10056800BB810E948B09FBBDEABDAA81BB810E94A9
:10057800670C1CF4929A939802C09298939AA88157
:10058800B9810E948B09F9BDE8BD0E94030B1CF4D8
:10059800979A969802C09798969A9AC1BA93AA93EE
:1005A800949A959A9298939896989798A881B981D1
:1005B8000E94520D3DC0BA93AA93EA81EA93AB8197
:1005C800B7DF0E94080B84C1BA93AA930E940C0B50
:1005D800AAE9B9E989E19EE30E94040DA3E9B1E023
:1005E8000E94130B0E940C0BAAE9B9E989E19FE369
:1005F8000E94040DA5E9B1E00E94130BE881F9817E
:10060800E0939701F09398010E940C0BA0E0B0E0F2
:1006180080E49FE30E94040D0E946B0CA9E9B1E0FD
:100628000E94130BE881F981E0939B01F0939C01F0
:1006380022960895BA93AA9322970E94DB0BA88565
:10064800B985C2DF0E94180BEF77F070E0938D0137
:10065800F0938E010E94180BE130A0E0FA0719F41C
:10066800EAEFFFEF56C0E330A0E0FA0719F4EBEF2A
:10067800FFEF4FC0E230A0E0FA0719F4ECEFFFEF0C
:1006880048C0E630A0E0FA0719F4EDEFFFEF41C0EB
:10069800E430A0E0FA0719F4EEEFFFEF3AC0EC30CF
:1006A800A0E0FA0719F4EFEFFFEF33C0E830A0E05D
:1006B800FA0731F4E0E0E0938F01E09390012DC058
:1006C800E831A0E0FA0719F4E1E0F0E022C0E031F7
:1006D800A0E0FA0719F4E2E0F0E01BC0E033A0E084
:1006E800FA0719F4E3E0F0E014C0E032A0E0FA07FA
:1006F80019F4E4E0F0E00DC0E036A0E0FA0719F4E0
:10070800E5E0F0E006C0E034A0E0FA0731F4E6E006
:10071800F0E0E0938F01F0939001A0919101B091E6
:100728009201E0918F01F0919001EA1BFB0B8F0180
:10073800E0918F01F0919001E0939101F093920183
:10074800E0919301F0919401A0918F01B0919001F3
:100758000E94060CBF01E0919501F0919601D80125
:100768000E94060CE60FF71F9F01A0919701B09118
:100778009801EA0FFB1FAF01E0919701F0919801F2
:10078800E21BF30BEE83FF830E941D0BE417F507B2
:1007980024F440919B0150919C010E94220B4E171A
:1007A8005F0724F44091990150919A010E941D0B12
:1007B800AE81BF81EA17FB0724F40E941D0BEE836C
:1007C800FF830E94220BAE81BF81AE17BF0724F4BE
:1007D8000E94220BEE83FF835A934A93A885B9851A
:1007E800BCDE0E94E20B2A960895BA93AA93EA8186
:1007F800FB814E165F06D4F40E94270B29F0E3DD37
:10080800A881B98117DFF8CF0E94270B71F4DBDDCF
:10081800C398A881B9810EDF0E94270B29F0F20145
:1008280031962F013197C39AEFCFE1CF4424552455
:100838004FC0BA93AA93C7DDE0918601E03021F456
:10084800E0918701E03019F00E942B0BF5CFE09181
:100858008601E03021F4E0918701E03009F003C01F
:100868000E942B0BF4CF0E94030B1CF4A881B981C2
:1008780095DE2EC0BA93AA93A6DDE0918B01E030F5
:1008880021F4E0918C01E03019F00E94320BF5CF91
:10089800E0918B01E03021F4E0918C01E03009F027
:1008A80003C00E94320BF4CF0E94030B1CF4A881F2
:1008B800B98174DE0DC0BA93AA930E94390B3097A0
:1008C80021F40E943E0BB5DF03C00E943E0BD2DF2D
:1008D80024960895BA93AA93EDEEDE2E0E94080B93
:1008E800EAEECE2E0E94080B0C94E709E0EFCE2E1C
:1008F800E6EEDE2E0895A7E00ADD6E2E7724EDE001
:100908000E94450B0E94AA0AEEEDF0E0FA93EA93E2
:10091800F301662777270E94390C84E00E94360984
:10092800289611C2E0EDF7E0FA93EA93A0E9B1E066
:1009380042DEE1E0F0E00E94490BE0EDF7E0FA93D7
:10094800EA93A8ECB0E0B7DFE5E0F0E00E94490BDD
:100958000895AA93C398E981FA81E0938201F093FC
:100968008301E881E03021F4E0918401E03009F06E
:1009780006C00E944F0BA4EEB0E00E94340AE98141
:10098800FA81309769F4E881E03011F0B4D08EC074
:10099800E0E00E94450BA9EEB0E00E94340A86C050
:1009A800E130A0E0FA0789F4E881E03021F4E09131
:1009B8008401E03011F07CD079C0E0E00E94450B62
:1009C800A3EFB0E00E94340A71C0E230A0E0FA0759
:1009D80069F4E881E03011F00ED168C0E0E00E94CF
:1009E800450BABEFB0E00E94340A60C0E330A0E0F2
:1009F800FA0799F4E881E03021F4E0918401E030CD
:100A080021F0A0E0B0E07FD051C0E0E00E94450BAB
:100A1800A6E0B1E00E94340A49C0E430A0E0FA0739
:100A280099F4E881E03021F4E0918401E03021F08C
:100A3800A1E0B0E068D03AC0E0E00E94450BAFE02A
:100A4800B1E00E94340A32C0E530A0E0FA0769F448
:100A5800E881E03011F06DD029C0E0E00E94450B3C
:100A6800A9E1B1E00E94340A21C0E630A0E0FA070B
:100A780069F4E881E03011F088D018C0E0E00E9405
:100A8800450BAFE1B1E00E94340A10C0E730A0E0A6
:100A9800FA0761F4E881E03011F0D7D007C0E0E050
:100AA8000E94450BA6E2B1E00E94340A0C94450A64
:100AB800E0918401E03071F40E944F0BA3EFB0E0A5
:100AC8000E94530BACE2B1E00E94340AE1E0E093EB
:100AD800840110C0E0918401E03061F00E94E909CE
:100AE800E0E00E94450BADE3B1E00E94340A1ADF52
:100AF8000E94570B089595DC0E94610BB2DC0E949E
:100B0800610BCFDC3CC0BA93AA93A881B981109736
:100B180011F0119709F403C0E0E0E883E983E88164
:100B2800F981AAE2B0E00E944E0C0E94570B0C9487
:100B3800E7090E944F0BA8E4B1E00E94530BA3E51C
:100B4800B1E00E94650B0E946C0BE0E00E94450B2F
:100B5800AFE5B1E00E94740B0E947B0BABE6B1E0FD
:100B68000E94650B0E947B0BA7E7B1E00E94740B03
:100B78000E946C0BA8EEB3E011DD0E944F0BE0E081
:100B8800E09384010E94850B0895E0E00E94450BE4
:100B9800A3E8B1E00E94340AE1E0E0938501E09126
:100BA8008501E03039F1989909C0E0E00E94A60A71
:100BB800A3E9B1E00E948C0B0E94850B999907C0AC
:100BC800E0E00E94A60AA3EAB1E00E94340A9A99DA
:100BD80007C0E0E00E94A60AA3EBB1E00E94340A35
:100BE8009B9907C0E0E00E94A60AA3ECB1E00E942E
:100BF800340AD5CF08950E944F0BABEFB0E00E94A6
:100C0800530BA3EDB1E00E94340AE1E0E0938501C3
:100C18006DDE0E94950BA4E1B0E05CDE6CDEE09135
:100C28008501E03039F40E94E909E6EEDE2E0E94E3
:100C3800850B0AC0989907C0E0E00E94A60AAAEDB1
:100C4800B1E00E948C0BEACF08950E944F0BA5EEED
:100C5800B1E00E94530BA0EFB1E00E94340AEDEE20
:100C6800DE2EA4EFB1E05EDBE0E00E94450BABEFC7
:100C7800B1E00E94340AE6EEDE2E0E94610BE0E04D
:100C88000E94450BA6E0B2E00E94340AE0EFCE2EA7
:100C98000E94610BE0E00E94450BA0E1B2E00E94D7
:100CA800340AEAEECE2E0E94610B08958CDBE7E051
:100CB8000E94A60A0E94AA0AECE8F0E0FA93EA93D6
:100CC8000E94390B0E94F40A84E00E943609289693
:100CD8003AC00E94990BE13421F0E23411F0EA3570
:100CE80009F405C0ACE2B0E0E1E40E94560C0E94B1
:100CF8009E0BBF010F01DF01319759F0FD013297BB
:100D080041F0F001339729F0FB01E430A0E0FA0745
:100D180009F404C00E94A30B0E944E0CEAE00E9452
:100D2800450B0E94AA0AECE2F2E0FA93EA930E94C9
:100D3800990B0E94AF0A0E949E0B0E94F40A88E059
:100D48000E9436092C96A0E6B1E00E94250A089573
:100D5800AA93EA93EFB7EA93E6E9E2BFE09181014B
:100D6800EF5FE0938101A0918101DA1610F0AE984F
:100D780001C0AE9AA0918101CA1610F0AF9801C0C7
:100D8800AF9AE991EFBFE991A99118951895E0E01C
:100D9800EBBBEABBE8E0E8BBEFEFE7BBE5BBE0EFA6
:100DA800E4BBE1E0E2BBEEEFE1BBEAE4E3BFE6E986
:100DB800E2BFE0E0ECBFE1EAEFBDE9E0EEBDE0E074
:100DC800EDBDECBDE7BDE6BDEBBDEABDE9BDE8BDE7
:100DD800E2BDE5BDE4BDE3BDE5BFE4BFE3E0E9BFD7
:100DE800E0E8E8B9E0E0E0BFE5BFE4BFEAB9E0E683
:100DF800E7B9E4E8E6B9E0B7EF71E0BFA0E10E9427
:100E0800580A0E94E909C398E0E00E94A60AA1E3F3
:100E1800B2E00E94530BA2E4B2E00E94340AA4EFAD
:100E2800B1E00E94520D0E94E9097894EAEECE2EB4
:100E3800E6EEDE2E0E94390B309721F0E130A0E07B
:100E4800FA0709F406C0AAE2B0E0E0E0F0E00E9488
:100E58004E0C0E944F0BA4EEB0E00E94530BA9EE7B
:100E6800B0E00E94340AE0918401E03021F4AEDA67
:100E780042DD1CDF2EDF989919C0E0918401E03033
:100E880021F4A2E8B1E00E94A80BA0918201B091E0
:100E9800830118972CF0E0E0E0938201E09383014E
:100EA8000E94950B0E94AE0BA0E053DD999906C0F5
:100EB8000E94AE0BA1E04DDD0E94950B9A992BC0C4
:100EC8000E949E0B309719F40E94A30B05C00E9444
:100ED8009E0B3196ADE2B0E00E944E0C0E949E0B34
:100EE800349724F00E94990BEA3509F403C00E9454
:100EF800A30B0DC00E949E0B349724F00E94990BFF
:100F0800EA3509F006C0ADE2B0E0E4E0F0E00E94A6
:100F18004E0C0E94950B9B992DC00E94990BE134B1
:100F280081F4ACE2B0E0E2E40E94560C0E949E0B11
:100F3800E430A0E0FA0721F40E94A30B0E944E0CB3
:100F480017C00E94990BE23451F4ACE2B0E0EAE534
:100F58000E94560CADE2B0E0E4E0F0E007C0ACE27D
:100F6800B0E0E1E40E94560C0E94A30B0E944E0CD4
:100F78000E94950B78CFFFCFBA93AA931A930A933E
:100F8800AA81BB8112960E94310C309729F1AA815F
:100F9800BB8114960E94310C8F01309761F00230AA
:100FA800E0E01E0780F0F80131978F01AA81BB812C
:100FB8001496ED93FC93AA81BB8112960E94A80B0C
:100FC8003197AC81A083AA81BB810E94310CFF2399
:100FD80012F00E94A80B06C0AA81BB81EFEFFFEFB9
:100FE800ED93FC931981088125960895BA93AA93E5
:100FF80026970E94DB0B10E0AC85BD85E0E0F0E0B1
:10100800ED93FC93EA89FB893196EA8BFB8B319748
:10101800E4912E2FE03009F41DC1E12FE03039F4BE
:10102800253211F411E002C00E94B50B12C1E13063
:10103800A9F4253219F40E94B50B0AC112E040E068
:1010480000E02D3211F401E004C12B3211F44BE21F
:1010580000C1203211F440E2FCC002C0E23039F491
:1010680050E013E0203311F40068F3C003C0E3300C
:1010780009F0EFC0203310F02A3308F007C0AAE0C7
:101088005A9F502DE22FE0535E0FE3C0E22FE33664
:1010980049F40E94BC0BE889F989A481AA930E94AB
:1010A800C20BD6C0E33741F40E94BC0B0E94C80BA8
:1010B8000E9472091E2F0AC0E03761F40E94BC0B1F
:1010C8000E94C80B0E947E091E2F086002600F77DD
:1010D80030E03CC0E43611F0E93611F4046002C097
:1010E800E53731F4E4E5F0E0EE83FF8315E00CC06A
:1010F800E83511F4086003C0E83709F0A9C0EEE547
:10110800F0E0EE83FF8314E002FF17C00E94BC0BDF
:10111800A889B9891496ED91FD91EA87FB87AB857B
:10112800AA232AF40E94ED0BEA87FB874DE24030A0
:1011380011F01F5F01C00B7F09C00E94BC0BA8897A
:10114800B98914960E94310CEA87FB8700FD11C00B
:10115800151778F407FF08C002FF04C00B7F242F7F
:10116800115001C020E301C020E20E94B50B51508C
:10117800EFCF312F01FF17C03030A1F003FF06C0B9
:10118800EE81FF812591EE83FF8305C0AE81BF818B
:101198002D91AE83BF830E94B50B503009F051509A
:1011A8003150EACF4BC020E3EE81FF810E94350C1D
:1011B800E887F987EE81FF813296EE83FF83E88521
:1011C800F985AA85BB85AE17BF0750F02F5FA885A4
:1011D800B985EA85FB85EA1BFB0BEA87FB87EFCF1E
:1011E8002A3328F003FF02C0295F01C0295D04FDEE
:1011F8001AC0213320F4A885B985119709F409C0CC
:10120800531710F000FF01C013C020E207FF0BC006
:1012180020E3006102FF07C00B7F4A930E94C20BC4
:10122800503009F051500E94B50B503009F0515020
:101238003150A885B985129708F0B5CF00FF08C0CE
:10124800503031F05150E0E2EA930E94C20BF8CFDF
:1012580010E0D8CEAC85BD85ED91FD910E94E20BE2
:1012680064960895FF92F82E26970E94DD0BDE0102
:101278001C960E94E90B0E94310C309719F4EFEF8D
:10128800FFEF27C0DE0116960E94E90B8D01DE01F3
:101298001C960E94E90BED91FD91EE83FF83E0E03F
:1012A800E887E987DE011A960E94E90BED91FD9126
:1012B800FA93EA931A930A93E0ECF7E0FA93EA9325
:1012C800DE011A9693DE9F01AE81BF81E0E0EC93C8
:1012D800F9010E94E40B2A96FF900895BA93AA9305
:1012E800A991B991EE27FF276D91662311F03196E8
:1012F800FBCF0895BA93AA93AA27BB27E991F9913E
:101308000590002011F01196FBCFFD010895BA93C6
:10131800AA93E991F99130971AF4E095F0953196EE
:101328000895FFE0FA95F1F70895A7B3AF70A7BB4A
:10133800C19AC098F6DFC29AF4DFA6B3C298F1DF6B
:10134800C29AEFDFC298A7FDF5CF0895A07FAB2B17
:10135800A8BBC29A0E949509C2980E94950908954F
:10136800AA93C198A7B3A76FA7BBB8B3BF70A8814A
:10137800EDDFA881A295EADFC19A0C948A0AC29A85
:101388000E949509E6B3C2980E949509E07F0895E6
:101398000E949509F4DFAE2FF2DFC198E295EA2B9F
:1013A8000895AA930E949909E881F0E0EF54FE4F4E
:1013B800E081A981AE0F0E94B409E981E093B501EB
:1013C800E881E093B601229608950E949909A2E067
:1013D8000E94B4090E949909ACE00E94B4090E94D5
:1013E8009909A1E00E94B409E0E0E093B601E09316
:1013F800B5010895AA93EF93FF93A8816894AA3042
:1014080039F0E894E091B701A091B501AE1758F012
:10141800E091B601EF5FE093B601E0E0EA93A091B6
:10142800B601BFDF56F0E091B501EF5FE093B5017B
:101438007CDFC09AA8810E94B409FF91EF910C94B7
:101448008A0ABA93AA931A93A981BA81ED91A983BA
:10145800BA831E2FE03019F0A12FCCDFF5CF10C0D2
:10146800BA93AA931A93E981FA813196E983FA83A8
:101478003197E4911E2FE03019F0A12FBBDFF3CF95
:10148800188123960895AA27BB271197F1F7089585
:10149800AA93C198A7B3A76FA7BBB8B3BF70A88119
:1014A8000E94AA09C19A32C0AA93C298C098E8813A
:1014B800E093B701E058E093B301E881E054E0938A
:1014C800B4010E94D20B0E94D20B0E94D20BDBDF28
:1014D800A0E2DEDFD8DFA8E20E94D70BA4E00E94DA
:1014E800D70BA5E80E94D70BA7B3AF70A7BBC19ACB
:1014F8000E94CC09E53011F0E0E008C00E9499098B
:10150800A6E00E94B4090E94E909E1E02196089545
:10151800E7E0F0E08E169F060895A82D0E948B0143
:101528000E2EF401ACE1B0E0EE0FFF1FAE0FBF1FAF
:101538000E943E0CA02DB0E00895EA9FF0016E0FC6
:101548007F1F0895EA93A0E00C94D509E0E6F1E046
:10155800FA93EA930895FF27662777270E94390CA4
:101568000895F401A0E0B0E0EE0FFF1F0895F0E049
:101578000E944E0CE0E0E6CF0E94340AE0E0EA93D5
:10158800A1E00E94D509E2CFE9E9F0E0FA93EA93F5
:10159800F4010E94F90B0E94390C0895AE0FBF1F89
:1015A8000E943E0C0E94F90B0E94390C88E00E94B0
:1015B80036092C96A0E6B1E00E94250AC398A4E655
:1015C800B0E00E94520DC39A0895F401AEE0B0E075
:1015D800EE0FFF1F0895AE0FBF1F0E943E0C089527
:1015E8000E94F90B0E94390C0895AA93E881F0E053
:1015F800F9BDE8BDE981F0E0FBBDEABD0895A88129
:10160800B9810E94670C0895A881B9810C9496014C
:10161800E881F9810E94F90B0E94D70C08950E9475
:10162800A00CED93FC930895E0918D01F0918E014B
:101638000895E0919B01F0919C010895E091990132
:10164800F0919A010895F0DFEC71EC310895EA8188
:10165800EA93AB810E94AA020C94E701EA81EA931B
:10166800AB810E94A3020C94E701AAE2B0E00E94B9
:101678003E0C0895EA81FB81FA93EA93AA81BB8123
:101688000895EA93A1E00C94D509FA93EA93A0EDA2
:10169800B7E00C94F9030E94E909E0E053CF0E94F7
:1016A800340AE0E0EECFE0E0E0938401E0E0F0E02F
:1016B800FA93EA93A0E00C94AD04A8EEB3E00C947E
:1016C80096010E94340AE8EEF3E0FA93EA9308954B
:1016D800A8EEB3E00E94B102A0EDB7E00C94520D61
:1016E8000E94340AE8E1FCEFFA93EA930895A8E12E
:1016F800BCEF0E94B102A0EDB7E00E94520DE0E0FD
:10170800C0CFE0E0F0E0FA93EA93A0E00C94AD04D7
:101718000E94340AE0E0E0938501A4EFB1E00C9464
:101728009601A8ECB0E00C949601ACE2B0E00E94FF
:10173800420C0895ADE2B0E00E943E0C0895ADE27F
:10174800B0E0E1E0F0E00895ED91FD913196FE936F
:10175800EE930895E0918201F0918301FA93EA9360
:1017680008952A93AD85BE85EF85F8890995089572
:10177800E889F9893497E88BF98B0895AD85BE859A
:10178800EF85F88909950895A889B9891496ED9186
:10179800FD91EE83FF83AE81BF8108950E94470AC1
:1017A800A0E30C944C0A0E94B4090C94470A5A937B
:1017B8004A933A932A931A930A9308955D814C8128
:1017C8003B812A811981088108950024AF0DB01D3D
:1017D8000895F195E195F0400895F095609570951C
:1017E800E195FF4F6F4F7F4F08956F2F660F660B80
:1017F800762F0895FA9FF02DEB9FF00DEA9FE02DCC
:10180800F10D08951CD0F6DF0EF4E3DF08950024EF
:10181800112490E1AA0FBB1F001C111C0E1A1F0AED
:1018280018F40E0E1F1E01C0A1609A9599F7FD01CC
:10183800D001089504D0EBDF0EF4CBDF0895E894CF
:10184800F7FF02C0C6DF6894B7FF06C0B195A1953F
:10185800B04000F8039400FA0895ED91FC911197B7
:1018680008950590F491E02D08957A936A93FA9378
:10187800EA930895119602D0FE2F1197E199FECFB1
:10188800FF93FFB7F894AEBBBFBBE09AEDB3FFBFC1
:10189800FF91089507D01196EF93EF2F03D0EF91A2
:1018A80011970895E19B02C0A895FCCF9FB7F894C3
:1018B800AEBBBFBBE09A8DB3E81719F0EDBBE29A57
:1018C800E19A9FBF089500240A160B0608953097E1
:1018D8006040704009F070580895552342F450381C
:1018E80011F4E0FF04C03196691F791F6BF050E8CE
:1018F800572711F45F9373C05F3F31F0660F000CF8
:1019080057956795752F08955F9300200AF072C068
:101918006BC050E8192E1522880F991F9527550F6F
:10192800879550E8072E0522660F771F7527550FF4
:1019380067950895689401C0E8945F93F2DF703862
:1019480018F07F3F08F44BC056E1571BAAF4519595
:1019580058300EF4593030F0EFEFFFEF6FEF7FE7BC
:1019680077F91AC077275523B9F0EE0FFF1F661FC6
:10197800771F5A95D1F710C07727583028F0EF2FE6
:10198800F62F672F5850F9CF552331F07695679584
:10199800F795E7955A95D1F700200AF41EDF5F9175
:1019A8000895689401C0E894309760407040B1F0A1
:1019B800002426F0772312F400940FDF172E7EE11F
:1019C800112032F07A95EE0FFF1F661F111CF9CF18
:1019D800EF2FF62F612D5F938ADF5F910895EE2731
:1019E800FF27BF015F910895EFEFFFEF6FE77FEFEC
:1019F8005F910895EFEFFFEF6FE77FE75F9108953D
:101A08005F9387DF703859F3903849F301240894BD
:101A1800791F23F424F300203AF3ECCF0F921F939D
:101A28002F933F934F93112722279927689FA0014F
:101A38008F9F302D410D591F6B9F300D411D591F30
:101A48008E9F27D0BF9F25D06A9F23D0BE9F1DD0D1
:101A5800AF9F1BD0AE9F110D291F391F491F591F5A
:101A6800E32FF42F652F522F4F913F912F911F9104
:101A78000F9066232AF0550FEE1FFF1F661F02C046
:101A880073954BF22ADF5F910895100D211D391FC0
:101A980002C0200D311D491F591F0895109639F0B5
:101AA800A8958DEC9AE00197F1F71197C9F7089579
:00000001FF
