:0E0000000C945A010C9400000C9400000C9417
:10000E0000000C9400000C9400000C9400000C9462
:10001E0000000C9400000C9472060C9400000C94DA
:10002E0000000C9400000C9400000C9400000C9442
:10003E0000000C9400000C9400000C9400000C9432
:10004E0090060C9400001027E80364000A000100DB
:10005E000010000110000100000000000A00640002
:10006E00C80060FFC800DC005000A500AA00050013
:10007E00550025642564256425642564256425645E
:10008E000042616361204C696E650073656E736F2B
:10009E00723A2564203D2025642020004261636170
:1000AE00204261636B67726F756E640043656E7498
:1000BE00657220506F696E74202020200073656E6B
:1000CE00736F723A2564202D2D3E2025642020006A
:1000DE002564202020004D656E750043616C6962B9
:1000EE00726174696F6E0052756E20426F740053A8
:1000FE00656E73205761726E61004D6170204269AA
:10010E007275004D6170204D65726168004D6F749F
:10011E006F7200427574746F6E0043617069740083
:10012E00436C69636B203220746F20737461727438
:10013E000052756E6E696E672E2E2E0054657374A6
:10014E00204D6F746F72002B31303030202B3130D8
:10015E003030002D31303030202D31303030002B0A
:10016E0031303030202D31303030002D31303030C4
:10017E00202B3130303000436C69636B203120749A
:10018E006F206578697400746F6D626F6C203D200E
:10019E0031202020202000746F6D626F6C203D2076
:1001AE0032202020202000746F6D626F6C203D2065
:1001BE0033202020202000746F6D626F6C203D2054
:1001CE00342020202020005761726E613A0045785D
:1001DE006974696E672E2E2E005465737420436108
:1001EE007069740043617069743A203E203C00438C
:1001FE00617069743A203C203E0043617069743A24
:10020E00205C2F0043617069743A202F5C00486FA8
:10021E006C64203120746F20657869740058440036
:10022E0020202020204C4547494F4E2020202020C2
:10023E0000204D414E2034204A4F4D42414E472022
:10024E00000001002D4E414E00494E46000080C078
:10025E00040004006600010093016A00010095018C
:10026E006C00010097016E00020099017000010000
:10027E009B0172000100A10174000100A301760030
:10028E000100A50178000100A7017A000100A90173
:10029E007C000100AB017E000100AD0150020200A6
:1002AE00B1015C020000F894EE27ECBBF1E0FBBF5D
:1002BE00EBBFE5BFF8E1F1BDE1BD8DE0A2E0BB27EC
:1002CE00ED938A95E9F780E094E0A0E6ED9301972F
:1002DE00E9F7EEE5F2E085919591009761F0A59131
:1002EE00B59105901590BF01F00105900D92019703
:1002FE00E1F7FB01F0CFEFE5EDBFE4E0EEBFC0E6C6
:10030E00D1E00C949106AA93E881E066E7B9369A9B
:10031E00349BFECF349AE5B121960895BA93AA93F1
:10032E00A881B9810E94AD0C83C1882499240E94B2
:10033E00F509D4F40E94FA09EA17FB0734F4A6E88B
:10034E00B1E0A80DB91DE1E00AC00E94FA09AE178E
:10035E00BF0734F4A6E8B1E0A80DB91DE0E0EC93B8
:10036E00F40131964F01E3CF0895A0918C01E0E4A2
:10037E00EA9FB001A0918B01E0E20E940A0AA091CF
:10038E008A01E0E10E940A0AA0918901E8E00E9438
:10039E000A0AA0918801E4E00E940A0AA09187014E
:1003AE00E2E00E940A0AA0918601E1E0EA9FF001D4
:1003BE00E60FF71FE0938D01F0938E010895B5DFE0
:1003CE00D4DF0895B2DFE9E00E940F0A0E94130AFB
:1003DE00E0E8F0E0FA93EA93E09186010E94180AB1
:1003EE00E09187010E94180AE09188010E94180A84
:1003FE00E09189010E94180AE0918A010E94180A70
:10040E00E0918B010E94180AE0918C010E94180A5B
:10041E008CE10E949F08A09659C4882499240E94BA
:10042E00F509D4F40E941E0AEA0FFB1FFF93EF9307
:10043E00A82D69DFAF91BF910E94240AAFE8B0E00A
:10044E000E94290A0E94310A0E941E0A0E943B0A3B
:10045E00F40131964F01E3CF0895882499240E9428
:10046E00F509D4F40E94520AEA0FFB1FFF93EF9393
:10047E00A82D49DFAF91BF910E94240AAAEAB0E0ED
:10048E000E94290A0E94310A0E94520A0E943B0AC7
:10049E00F40131964F01E3CF0895882499240E94E8
:1004AE00F5090CF044C0F401ACE1B0E0EE0FFF1F13
:1004BE00EA0FFB1FBF010E94520A0E94580A0F0149
:1004CE000E941E0A0E94580AD001AE0FBF1FE2E022
:1004DE00F0E00E94790BDB010E94A90BE0E00E9484
:1004EE000F0AAAEBB0E00E94290AEBECF0E0FA93B7
:1004FE00EA93F4010E94540B0E94940BF401ACE1B8
:10050E00B0E0EE0FFF1F0E94580A0E94540B0E948B
:10051E00940B88E00E949F082C96A0E6B1E00E9402
:10052E008E09C398C39AF40131964F01B8CF08953E
:10053E000E945D0A929A93989698979A79C00E9413
:10054E005D0A9298939A9698979A72C00E945D0A45
:10055E00929A9398969A97986BC0BA93AA93AA81F7
:10056E00BB810E94F408FBBDEABDAA81BB810E943B
:10057E00C20B1CF4929A939802C09298939AA881F7
:10058E00B9810E94F408F9BDE8BD0E94670A1CF407
:10059E00979A969802C09798969A9AC1BA93AA93E8
:1005AE00949A959A9298939896989798A881B981CB
:1005BE000E94AD0C3DC0BA93AA93EA81EA93AB8137
:1005CE00B7DF0E946C0A84C1BA93AA930E94700A84
:1005DE00AAE9B9E989E19EE30E945F0CA3E9B1E0C3
:1005EE000E94770A0E94700AAAE9B9E989E19FE39D
:1005FE000E945F0CA5E9B1E00E94770AE881F981BB
:10060E00E0939701F09398010E94700AA0E0B0E089
:10061E0080E49FE30E945F0C0E94C60BA9E9B1E043
:10062E000E94770AE881F981E0939B01F0939C0187
:10063E0022960895BA93AA9322970E94360BA88504
:10064E00B985C2DF0E947C0AEF77F070E0938D01CE
:10065E00F0938E010E947C0AE130A0E0FA0719F4B3
:10066E00EAEFFFEF56C0E330A0E0FA0719F4EBEF24
:10067E00FFEF4FC0E230A0E0FA0719F4ECEFFFEF06
:10068E0048C0E630A0E0FA0719F4EDEFFFEF41C0E5
:10069E00E430A0E0FA0719F4EEEFFFEF3AC0EC30C9
:1006AE00A0E0FA0719F4EFEFFFEF33C0E830A0E057
:1006BE00FA0731F4E0E0E0938F01E09390012DC052
:1006CE00E831A0E0FA0719F4E1E0F0E022C0E031F1
:1006DE00A0E0FA0719F4E2E0F0E01BC0E033A0E07E
:1006EE00FA0719F4E3E0F0E014C0E032A0E0FA07F4
:1006FE0019F4E4E0F0E00DC0E036A0E0FA0719F4DA
:10070E00E5E0F0E006C0E034A0E0FA0731F4E6E000
:10071E00F0E0E0938F01F0939001A0919101B091E0
:10072E009201E0918F01F0919001EA1BFB0B8F017A
:10073E00E0918F01F0919001E0939101F09392017D
:10074E00E0919301F0919401A0918F01B0919001ED
:10075E000E94610BBF01E0919501F0919601D801C5
:10076E000E94610BE60FF71F9F01A0919701B091B8
:10077E009801EA0FFB1FAF01E0919701F0919801EC
:10078E00E21BF30BEE83FF830E94810AE417F50749
:10079E0024F440919B0150919C010E94860A4E17B1
:1007AE005F0724F44091990150919A010E94810AA9
:1007BE00AE81BF81EA17FB0724F40E94810AEE8303
:1007CE00FF830E94860AAE81BF81AE17BF0724F455
:1007DE000E94860AEE83FF835A934A93A885B985B1
:1007EE00BCDE0E943D0B2A960895BA93AA93EA8125
:1007FE00FB814E165F06D4F40E948B0A29F0DFDDD2
:10080E00A881B98117DFF8CF0E948B0A71F4D7DD6A
:10081E00C398A881B9810EDF0E948B0A29F0F201DC
:10082E0031962F013197C39AEFCFE1CF442455244F
:10083E004FC0BA93AA93C3DDE0918601E03021F454
:10084E00E0918701E03019F00E948F0AF5CFE09118
:10085E008601E03021F4E0918701E03009F003C019
:10086E000E948F0AF4CF0E94670A1CF4A881B981F6
:10087E0095DE2EC0BA93AA93A2DDE0918B01E030F3
:10088E0021F4E0918C01E03019F00E94960AF5CF28
:10089E00E0918B01E03021F4E0918C01E03009F021
:1008AE0003C00E94960AF4CF0E94670A1CF4A88126
:1008BE00B98174DE0DC0BA93AA930E949D0A309737
:1008CE0021F40E94A20AD6DF03C00E94A20AB1DF61
:1008DE0024960895BA93AA93EDEEDE2E0E946C0A2A
:1008EE00EAEECE2E0E946C0A0C945009E0EFCE2E4A
:1008FE00E6EEDE2E0895A7E006DD6E2E7724EDE0FF
:10090E000E94A90A0E94130AEEEDF0E0FA93EA9310
:10091E00F30166277727D4C10E94AD0AA0E9B1E0A2
:10092E004ADEE1E0F0E00E94B20A0E94B90A0E949B
:10093E00B20A0E94B90AFA93EA93A8EEB3E055DF21
:10094E000895AA93C398E981FA81E0938201F09306
:10095E008301E881E03021F4E0918401E03009F078
:10096E0006C00E94C00AA4EEB0E00E949D09E98173
:10097E00FA81309769F4E881E03011F0B4D08EC07E
:10098E00E0E00E94A90AA9EEB0E00E949D0986C08F
:10099E00E130A0E0FA0789F4E881E03021F4E0913B
:1009AE008401E03011F07CD079C0E0E00E94A90A09
:1009BE00A5EFB0E00E949D0971C0E230A0E0FA07F9
:1009CE0069F4E881E03011F012D168C0E0E00E94D5
:1009DE00A90AADEFB0E00E949D0960C0E330A0E02F
:1009EE00FA0799F4E881E03021F4E0918401E030D7
:1009FE0021F0A0E0B0E07FD051C0E0E00E94A90A53
:100A0E00A8E0B1E00E949D0949C0E430A0E0FA07D9
:100A1E0099F4E881E03021F4E0918401E03021F096
:100A2E00A1E0B0E068D03AC0E0E00E94A90AA1E1DE
:100A3E00B1E00E949D0932C0E530A0E0FA0769F4EA
:100A4E00E881E03011F06DD029C0E0E00E94A90AE3
:100A5E00ABE1B1E00E949D0921C0E630A0E0FA07AB
:100A6E0069F4E881E03011F08CD018C0E0E00E940B
:100A7E00A90AA1E2B1E00E949D0910C0E730A0E0F2
:100A8E00FA0761F4E881E03011F0DBD007C0E0E056
:100A9E000E94A90AA8E2B1E00E949D090C94AE0939
:100AAE00E0918401E03071F40E94C00AA5EFB0E03D
:100ABE000E94C40AAEE2B1E00E949D09E1E0E0931B
:100ACE00840110C0E0918401E03061F00E9452096F
:100ADE00E0E00E94A90AAFE3B1E00E949D091CDF8D
:100AEE000E94C80A089599DC0E94D20AB6DC0E94C0
:100AFE00D20AD3DC40C0BA93AA93A881B9811097C9
:100B0E0011F0119709F403C0E0E0E883E983E8816E
:100B1E00F981AAE2B0E00E94A90B0E94C80A0C94C7
:100B2E0050090E94C00AAAE4B1E00E94C40AA5E5D9
:100B3E00B1E00E949D090E94AD0A0E94D60AE0E033
:100B4E000E94A90AA1E6B1E00E94DE0A0E94E50A0F
:100B5E00ADE6B1E00E949D090E94AD0A0E94E50A31
:100B6E00A9E7B1E00E94DE0A0E94D60AA8EEB3E021
:100B7E0015DD0E94C00AE0E0E09384010E94EF0AB6
:100B8E000895E0E00E94A90AA5E8B1E00E949D093F
:100B9E00E1E0E0938501E0918501E03039F198992B
:100BAE0009C0E0E00E940F0AA5E9B1E00E94F60A32
:100BBE000E94EF0A999907C0E0E00E940F0AA5EA89
:100BCE00B1E00E949D099A9907C0E0E00E940F0AC9
:100BDE00A5EBB1E00E949D099B9907C0E0E00E9441
:100BEE000F0AA5ECB1E00E949D09D5CF08950E9491
:100BFE00C00AADEFB0E00E94C40AA5EDB1E00E94BC
:100C0E009D09E1E0E093850171DE0E94FF0AA4E1F7
:100C1E00B0E060DE70DEE0918501E03039F40E94D4
:100C2E005209E6EEDE2E0E94EF0A0AC0989907C01E
:100C3E00E0E00E940F0AACEDB1E00E94F60AEACFA6
:100C4E0008950E94C00AA7EEB1E00E94C40AA2EF66
:100C5E00B1E00E949D09EDEEDE2EA4EFB1E05EDB69
:100C6E00E0E00E94A90AADEFB1E00E949D09E6EE18
:100C7E00DE2E0E94D20AE0E00E94A90AA8E0B2E0AD
:100C8E000E949D09E0EFCE2E0E94D20AE0E00E9463
:100C9E00A90AA2E1B2E00E949D09EAEECE2E0E94C0
:100CAE00D20A08958CDBE7E00E940F0A0E94130A15
:100CBE00ECE8F0E0FA93EA930E949D0A0E94540B2E
:100CCE000E94940B84E00E949F082896A0E6B1E053
:100CDE000E948E090895AA93EA93EFB7EA93E6E984
:100CEE00E2BFE0918101EF5FE0938101A09181016C
:100CFE00DA1610F0AE9801C0AE9AA0918101CA1614
:100D0E0010F0AF9801C0AF9AE991EFBFE991A991A8
:100D1E0018951895E0E0EBBBEABBE8E0E8BBEFEF17
:100D2E00E7BBE5BBE0EFE4BBE1E0E2BBEEEFE1BB2E
:100D3E00EAE4E3BFE6E9E2BFE0E0ECBFE1EAEFBDE3
:100D4E00E9E0EEBDE0E0EDBDECBDE7BDE6BDEBBD1F
:100D5E00EABDE9BDE8BDE2BDE5BDE4BDE3BDE5BF6D
:100D6E00E4BFE3E0E9BFE0E8E8B9E0E0E0BFE5BFFB
:100D7E00E4BFEAB9E0E6E7B9E4E8E6B9E0B7EF7157
:100D8E00E0BFA0E10E94C1090E945209C398E0E0B1
:100D9E000E940F0AAEE2B2E00E94C40AAFE3B2E0D4
:100DAE000E949D09A4EFB1E00E94AD0C0E94520971
:100DBE007894EAEECE2EE6EEDE2E0E949D0A309755
:100DCE0021F0E130A0E0FA0709F406C0AAE2B0E093
:100DDE00E0E0F0E00E94A90B0E94C00AA4EEB0E091
:100DEE000E94C40AA9EEB0E00E949D09E091840120
:100DFE00E03019F4E7DA7FDD55DF989919C0E091FC
:100E0E008401E03021F4A2E8B1E00E94030BA0912E
:100E1E008201B091830118972CF0E0E0E0938201FB
:100E2E00E09383010E94FF0A0E94090BA0E089DD76
:100E3E00999906C00E94090BA1E083DD0E94FF0A6A
:100E4E00D5CFFFCFBA93AA931A930A93AA81BB81E7
:100E5E0012960E948C0B309729F1AA81BB811496B1
:100E6E000E948C0B8F01309761F00230E0E01E077C
:100E7E0080F0F80131978F01AA81BB811496ED9312
:100E8E00FC93AA81BB8112960E94030B3197AC8111
:100E9E00A083AA81BB810E948C0BFF2312F00E94BB
:100EAE00030B06C0AA81BB81EFEFFFEFED93FC931E
:100EBE001981088125960895BA93AA9326970E94C0
:100ECE00360B10E0AC85BD85E0E0F0E0ED93FC93D1
:100EDE00EA89FB893196EA8BFB8B3197E4912E2FB1
:100EEE00E03009F41DC1E12FE03039F4253211F460
:100EFE0011E002C00E94100B12C1E130A9F425329C
:100F0E0019F40E94100B0AC112E040E000E02D32ED
:100F1E0011F401E004C12B3211F44BE200C1203276
:100F2E0011F440E2FCC002C0E23039F450E013E0AC
:100F3E00203311F40068F3C003C0E33009F0EFC0B2
:100F4E00203310F02A3308F007C0AAE05A9F502D24
:100F5E00E22FE0535E0FE3C0E22FE33649F40E9426
:100F6E00170BE889F989A481AA930E941D0BD6C09C
:100F7E00E33741F40E94170B0E94230B0E94DB08FB
:100F8E001E2F0AC0E03761F40E94170B0E94230B3C
:100F9E000E94E7081E2F086002600F7730E03CC009
:100FAE00E43611F0E93611F4046002C0E53731F48D
:100FBE00E4E5F0E0EE83FF8315E00CC0E83511F4B4
:100FCE00086003C0E83709F0A9C0EEE5F0E0EE8353
:100FDE00FF8314E002FF17C00E94170BA889B9897E
:100FEE001496ED91FD91EA87FB87AB85AA232AF42F
:100FFE000E94480BEA87FB874DE2403011F01F5FDD
:10100E0001C00B7F09C00E94170BA889B9891496DD
:10101E000E948C0BEA87FB8700FD11C0151778F430
:10102E0007FF08C002FF04C00B7F242F115001C020
:10103E0020E301C020E20E94100B5150EFCF312F60
:10104E0001FF17C03030A1F003FF06C0EE81FF8113
:10105E002591EE83FF8305C0AE81BF812D91AE83B6
:10106E00BF830E94100B503009F051503150EACF1F
:10107E004BC020E3EE81FF810E94900BE887F98739
:10108E00EE81FF813296EE83FF83E885F985AA858E
:10109E00BB85AE17BF0750F02F5FA885B985EA85CF
:1010AE00FB85EA1BFB0BEA87FB87EFCF2A3328F081
:1010BE0003FF02C0295F01C0295D04FD1AC0213360
:1010CE0020F4A885B985119709F409C0531710F0BB
:1010DE0000FF01C013C020E207FF0BC020E3006138
:1010EE0002FF07C00B7F4A930E941D0B503009F080
:1010FE0051500E94100B503009F051503150A885BC
:10110E00B985129708F0B5CF00FF08C0503031F006
:10111E005150E0E2EA930E941D0BF8CF10E0D8CEBA
:10112E00AC85BD85ED91FD910E943D0B64960895B1
:10113E00FF92F82E26970E94380BDE011C960E9415
:10114E00440B0E948C0B309719F4EFEFFFEF27C082
:10115E00DE0116960E94440B8D01DE011C960E9444
:10116E00440BED91FD91EE83FF83E0E0E887E98784
:10117E00DE011A960E94440BED91FD91FA93EA93CB
:10118E001A930A93E9E2F7E0FA93EA93DE011A96CC
:10119E0093DE9F01AE81BF81E0E0EC93F9010E94E6
:1011AE003F0B2A96FF900895BA93AA93A991B991ED
:1011BE00EE27FF276D91662311F03196FBCF089530
:1011CE00BA93AA93AA27BB27E991F991059000201B
:1011DE0011F01196FBCFFD010895BA93AA93E991F0
:1011EE00F99130971AF4E095F09531960895FFE055
:1011FE00FA95F1F70895A7B3AF70A7BBC19AC0983F
:10120E00F6DFC29AF4DFA6B3C298F1DFC29AEFDF1F
:10121E00C298A7FDF5CF0895A07FAB2BA8BBC29AAD
:10122E000E94FE08C2980E94FE080895AA93C198D3
:10123E00A7B3A76FA7BBB8B3BF70A881EDDFA88116
:10124E00A295EADFC19A0C94F309C29A0E94FE0895
:10125E00E6B3C2980E94FE08E07F08950E94FE0841
:10126E00F4DFAE2FF2DFC198E295EA2B0895AA9330
:10127E000E940209E881F0E0EF54FE4FE081A9815F
:10128E00AE0F0E941D09E981E093B501E881E0935C
:10129E00B601229608950E940209A2E00E941D093D
:1012AE000E940209ACE00E941D090E940209A1E001
:1012BE000E941D09E0E0E093B601E093B5010895A8
:1012CE00AA93EF93FF93A8816894AA3039F0E8941B
:1012DE00E091B701A091B501AE1758F0E091B601BB
:1012EE00EF5FE093B601E0E0EA93A091B601BFDFB5
:1012FE0056F0E091B501EF5FE093B5017CDFC09A47
:10130E00A8810E941D09FF91EF910C94F309BA93E5
:10131E00AA931A93A981BA81ED91A983BA831E2F3C
:10132E00E03019F0A12FCCDFF5CF10C0BA93AA93FD
:10133E001A93E981FA813196E983FA833197E49120
:10134E001E2FE03019F0A12FBBDFF3CF18812396AB
:10135E000895AA27BB271197F1F70895AA93C1986C
:10136E00A7B3A76FA7BBB8B3BF70A8810E9413091C
:10137E00C19A32C0AA93C298C098E881E093B7018F
:10138E00E058E093B301E881E054E093B4010E9489
:10139E002D0B0E942D0B0E942D0BDBDFA0E2DEDF5A
:1013AE00D8DFA8E20E94320BA4E00E94320BA5E81F
:1013BE000E94320BA7B3AF70A7BBC19A0E9435092A
:1013CE00E53011F0E0E008C00E940209A6E00E949C
:1013DE001D090E945209E1E021960895E7E0F0E030
:1013EE008E169F060895A82D0E948A010E2EF401D6
:1013FE00ACE1B0E0EE0FFF1FAE0FBF1F0E94990BC6
:10140E00A02DB0E00895EA9FF0016E0F7F1F0895A2
:10141E00EA93A0E00C943E09E0E6F1E0FA93EA9339
:10142E000895FF27662777270E94940B0895F401ED
:10143E00A0E0B0E0EE0FFF1F0895F0E00E94A90BB0
:10144E00E0E0E6CF0E949D09E0E0EA93A1E00E9471
:10145E003E09E2CFE9E9F0E0FA93EA93F4010E9443
:10146E00540B0E94940B0895AE0FBF1F0E94990B50
:10147E000E94540B0E94940B88E00E949F082C96A9
:10148E00A0E6B1E00E948E09C398A4E6B0E00E94E7
:10149E00AD0CC39A0895F401AEE0B0E0EE0FFF1F5D
:1014AE000895AE0FBF1F0E94990B0895AA93E8816D
:1014BE00F0E0F9BDE8BDE981F0E0FBBDEABD0895BD
:1014CE00A881B9810E94C20B0895A881B9810C949C
:1014DE009501E881F9810E94540B0E94320C089507
:1014EE000E94FB0BED93FC930895E0918D01F0911A
:1014FE008E010895E0919B01F0919C010895E09179
:10150E009901F0919A010895F0DFEC71EC31089594
:10151E00EA81EA93AB810E94AD020C94E601EA8166
:10152E00EA93AB810E94A6020C94E601AAE2B0E017
:10153E000E94990B0895EA81FB81FA93EA93AA819E
:10154E00BB810895EA93A1E00C943E09E8EEF3E026
:10155E00FA93EA930895FA93EA93A8EEB3E00E9401
:10156E00FC03F4CFA8ECB0E00E946204E5E0F0E0EA
:10157E0008950E945209E0E04BCF0E949D09E0E0E1
:10158E00E1CFE0E0E0938401E0E0F0E0FA93EA934B
:10159E00A0E00C94A804A8EEB3E00C949501A8EE7C
:1015AE00B3E00E94B402A0EDB7E00C94AD0C0E9423
:1015BE009D09E8E1FCEFFA93EA930895A8E1BCEFE8
:1015CE000E94B402A0EDB7E00E94AD0CE0E0BACFED
:1015DE00E0E0F0E0FA93EA93A0E00C94A8040E94F5
:1015EE009D09E0E0E0938501A4EFB1E00C94950134
:1015FE00A8ECB0E00C949501ED91FD913196FE931F
:10160E00EE930895E0918201F0918301FA93EA93AB
:10161E0008952A93AD85BE85EF85F88909950895BD
:10162E00E889F9893497E88BF98B0895AD85BE85E5
:10163E00EF85F88909950895A889B9891496ED91D1
:10164E00FD91EE83FF83AE81BF8108950E94B009A4
:10165E00A0E30C94B5090E941D090C94B0095A938D
:10166E004A933A932A931A930A9308955D814C8173
:10167E003B812A811981088108950024AF0DB01D88
:10168E000895F195E195F0400895F0956095709567
:10169E00E195FF4F6F4F7F4F08956F2F660F660BCB
:1016AE00762F0895FA9FF02DEB9FF00DEA9FE02D17
:1016BE00F10D08951CD0F6DF0EF4E3DF089500243B
:1016CE00112490E1AA0FBB1F001C111C0E1A1F0A39
:1016DE0018F40E0E1F1E01C0A1609A9599F7FD0118
:1016EE00D001089504D0EBDF0EF4CBDF0895E8941B
:1016FE00F7FF02C0C6DF6894B7FF06C0B195A1958B
:10170E00B04000F8039400FA0895ED91FC91119702
:10171E0008950590F491E02D08957A936A93FA93C3
:10172E00EA930895119602D0FE2F1197E199FECFFC
:10173E00FF93FFB7F894AEBBBFBBE09AEDB3FFBF0C
:10174E00FF91089507D01196EF93EF2F03D0EF91ED
:10175E0011970895E19B02C0A895FCCF9FB7F8940E
:10176E00AEBBBFBBE09A8DB3E81719F0EDBBE29AA2
:10177E00E19A9FBF089500240A160B06089530972C
:10178E006040704009F070580895552342F4503867
:10179E0011F4E0FF04C03196691F791F6BF050E819
:1017AE00572711F45F9373C05F3F31F0660F000C43
:1017BE0057956795752F08955F9300200AF072C0B4
:1017CE006BC050E8192E1522880F991F9527550FBB
:1017DE00879550E8072E0522660F771F7527550F40
:1017EE0067950895689401C0E8945F93F2DF7038AE
:1017FE0018F07F3F08F44BC056E1571BAAF45195E1
:10180E0058300EF4593030F0EFEFFFEF6FEF7FE707
:10181E0077F91AC077275523B9F0EE0FFF1F661F11
:10182E00771F5A95D1F710C07727583028F0EF2F31
:10183E00F62F672F5850F9CF552331F076956795CF
:10184E00F795E7955A95D1F700200AF41EDF5F91C0
:10185E000895689401C0E894309760407040B1F0EC
:10186E00002426F0772312F400940FDF172E7EE16A
:10187E00112032F07A95EE0FFF1F661F111CF9CF63
:10188E00EF2FF62F612D5F938ADF5F910895EE277C
:10189E00FF27BF015F910895EFEFFFEF6FE77FEF37
:1018AE005F910895EFEFFFEF6FE77FE75F91089588
:1018BE005F9387DF703859F3903849F30124089409
:1018CE00791F23F424F300203AF3ECCF0F921F93E9
:1018DE002F933F934F93112722279927689FA0019B
:1018EE008F9F302D410D591F6B9F300D411D591F7C
:1018FE008E9F27D0BF9F25D06A9F23D0BE9F1DD01D
:10190E00AF9F1BD0AE9F110D291F391F491F591FA5
:10191E00E32FF42F652F522F4F913F912F911F914F
:10192E000F9066232AF0550FEE1FFF1F661F02C091
:10193E0073954BF22ADF5F910895100D211D391F0B
:10194E0002C0200D311D491F591F0895109639F000
:10195E00A8958DEC9AE00197F1F71197C9F70895C4
:00000001FF
