:040000000C945B0100
:100004000C9400000C9400000C9400000C9400006C
:100014000C9400000C9400000C9400000C9400005C
:100024000C94CD070C9400000C9400000C94000078
:100034000C9400000C9400000C9400000C9400003C
:100044000C9400000C9400000C94EB070C9400003A
:100054001027E80364000A000100001000011000EA
:100064000100000000000A006400C80060FFC8002E
:10007400DC005000A500AA00050055002564256495
:100084002564256425642564256400426163612038
:100094004C696E650073656E736F723A2564203D1A
:1000A40020256420200042616361204261636B6704
:1000B400726F756E640043656E74657220506F696B
:1000C4006E74202020200073656E736F723A25646D
:1000D400202D2D3E20256420200025642020200092
:1000E4004D656E75004B616C696272617369005293
:1000F400756E20426F740053656E73205761726E83
:1001040061004D61702042697275004D6170204D2F
:1001140065726168004D6F746F7200427574746F1C
:100124006E00436170697400436C69636B20322014
:10013400746F2073746172740052756E6E696E67A9
:100144002E2E2E0054657374204D6F746F72002B25
:1001540031303030202B31303030002D31303030E0
:10016400202D31303030002B31303030202D3130E3
:100174003030002D31303030202B313030300043DE
:100184006C69636B203120746F2065786974007426
:100194006F6D626F6C203D20312020202020007480
:1001A4006F6D626F6C203D2032202020202000746F
:1001B4006F6D626F6C203D2033202020202000745E
:1001C4006F6D626F6C203D2034202020202000576A
:1001D40061726E613A0045786974696E672E2E2EDD
:1001E40000546573742043617069740043617069DD
:1001F400743A203E203C0043617069743A203C20EC
:100204003E0043617069743A205C2F004361706959
:10021400743A202F5C00486F6C64203120746F2086
:100224006578697400584400256325640020202003
:1002340020204C4547494F4E202020202000204DAF
:10024400414E2034204A4F4D42414E472000010088
:100254002D4E414E00494E46000080C0040004006B
:100264006600010093016A00010095016C00010021
:1002740097016E0002009901700001009B01720059
:100284000100A10174000100A30176000100A50191
:1002940078000100A7017A000100A9017C00010097
:1002A400AB017E000100AF0152020200B3015E0205
:1002B4000000F894EE27ECBBF1E0FBBFEBBFE5BF19
:1002C400F8E1F1BDE1BD8DE0A2E0BB27ED938A9595
:1002D400E9F780E094E0A0E6ED930197E9F7E0E622
:1002E400F2E085919591009761F0A591B591059003
:1002F4001590BF01F00105900D920197E1F7FB0104
:10030400F0CFEFE5EDBFE4E0EEBFC0E6D1E00C9442
:10031400EC07AA93E881E066E7B9369A349BFECFEE
:10032400349AE5B121960895BA93AA93A881B98124
:100334000E94A80E0CC3882499240E94C30BD4F4F1
:100344000E94C80BEA17FB0734F4A6E8B1E0A80D35
:10035400B91DE1E00AC00E94C80BAE17BF0734F410
:10036400A6E8B1E0A80DB91DE0E0EC93F4013196E4
:100374004F01E3CF0895A0918C01E0E4EA9FB0011E
:10038400A0918B01E0E20E94D80BA0918A01E0E1E8
:100394000E94D80BA0918901E8E00E94D80BA0919B
:1003A4008801E4E00E94D80BA0918701E2E00E945A
:1003B400D80BA0918601E1E0EA9FF001E60FF71F58
:1003C400E0938D01F0938E010895B5DFD4DF089595
:1003D400B2DFE9E00E94DD0B0E94E10BE0E8F0E00F
:1003E400FA93EA93E09186010E94E60BE09187017B
:1003F4000E94E60BE09188010E94E60BE0918901DE
:100404000E94E60BE0918A010E94E60BE0918B01C9
:100414000E94E60BE0918C010E94E60B8CE10E94A5
:100424006D0AA0960E94EC0B0895882499240E94DA
:10043400C30BE4F40E94F00BEA0FFB1FFF93EF934E
:10044400A82D67DFAF91BF910E94F60BAFE8B0E033
:100454000E94FB0B0E94030C0E94F00B0E940D0CE7
:100464000E941A0CF40131964F01E1CF08958824BB
:1004740099240E94C30BE4F40E94210CEA0FFB1F91
:10048400FF93EF93A82D45DFAF91BF910E94F60B28
:10049400AAEAB0E00E94FB0B0E94030C0E94210C0C
:1004A4000E940D0C0E941A0CF40131964F01E1CF09
:1004B4000895882499240E94C30BD4F5F401ACE177
:1004C400B0E0EE0FFF1FEA0FFB1FBF010E94210CDB
:1004D400AE0FBF1F0E94940D0F010E94F00BAE0FD0
:1004E400BF1F0E94940DD001AE0FBF1FE2E0F0E0E9
:1004F4000E94740DDB010E94A40DE0E00E94DD0B5C
:10050400AAEBB0E00E94FB0BEBECF0E0FA93EA9369
:10051400F4010E94270CF401ACE1B0E0EE0FFF1FE0
:100524000E940D0CC398C39AF40131964F01C3CFB6
:1005340008950E942C0C929A93989698979A07C2C1
:100544000E942C0C9298939A969A979800C20E94B3
:100554002C0C9298939A9698979AF9C10E942C0C15
:10056400929A9398969A9798F2C1BA93AA93AA8169
:10057400BB810E94C20AFBBDEABDAA81BB810E9465
:10058400BD0D1CF4929A939802C09298939AA881F4
:10059400B9810E94C20AF9BDE8BD0E94360C1CF460
:1005A400979A969802C09798969AC5C1BA93AA93B7
:1005B400949A959A9298939896989798A881B981C5
:1005C4000E94A80EC4C1BA93AA93EA81EA93AB81AC
:1005D400B0DF0E943B0CAFC1BA93AA930E943F0CB8
:1005E400AAE9B9E989E19EE30E945A0EA3E9B1E0C0
:1005F4000E94460C0E943F0CAAE9B9E989E19FE3F5
:100604000E945A0EA5E9B1E00E94460CE881F981E6
:10061400E0939701F09398010E943F0CA0E0B0E0B2
:1006240080E49FE30E945A0E0E94C10DA9E9B1E043
:100634000E94460CE881F981E0939B01F0939C01B0
:1006440086C1BA93AA9322970E94310DA885B985D1
:10065400C3DF0E944B0CEF77F070E0938D01F093B1
:100664008E010E944B0CE130A0E0FA0719F4EAEF86
:10067400FFEF56C0E330A0E0FA0719F4EBEFFFEF09
:100684004FC0E230A0E0FA0719F4ECEFFFEF48C0E6
:10069400E630A0E0FA0719F4EDEFFFEF41C0E430D3
:1006A400A0E0FA0719F4EEEFFFEF3AC0EC30A0E057
:1006B400FA0719F4EFEFFFEF33C0E830A0E0FA07D0
:1006C40031F4E0E0E0938F01E09390012DC0E83134
:1006D400A0E0FA0719F4E1E0F0E022C0E031A0E084
:1006E400FA0719F4E2E0F0E01BC0E033A0E0FA07F7
:1006F40019F4E3E0F0E014C0E032A0E0FA0719F4E2
:10070400E4E0F0E00DC0E036A0E0FA0719F4E5E01B
:10071400F0E006C0E034A0E0FA0731F4E6E0F0E0EF
:10072400E0938F01F0939001A0919101B091920117
:10073400E0918F01F0919001EA1BFB0B8F01E09196
:100744008F01F0919001E0939101F0939201E09177
:100754009301F0919401A0918F01B09190010E94B6
:100764005C0DBF01E0919501F0919601D8010E94C2
:100774005C0DE60FF71F9F01A0919701B0919801BE
:10078400EA0FFB1FAF01E0919701F0919801E21B82
:10079400F30BEE83FF830E94500CE417F50724F457
:1007A40040919B0150919C010E94550C4E175F078C
:1007B40024F44091990150919A010E94500CAE8109
:1007C400BF81EA17FB0724F40E94500CEE83FF83D9
:1007D4000E94550CAE81BF81AE17BF0724F40E945E
:1007E400550CEE83FF835A934A93A885B985BDDEE1
:1007F4000E94380D2A960895BA93AA93EA81FB8140
:100804004E165F06D4F40E945A0C29F0DEDDA8814E
:10081400B98117DFF8CF0E945A0C71F4D6DDC39862
:10082400A881B9810EDF0E945A0C29F0F201319699
:100834002F013197C39AEFCFE1CF442455247BC0D5
:10084400BA93AA93EC81FD814E165F06CCF4BDDD0C
:10085400AA81BB81F6DE0E944B0CEF77EF3771F46F
:10086400F20131962F013197EA81EA93AB8168DE78
:100874000E943B0CAAE0B0E099DE01C0E8CFE2CFD1
:100884004424552426960895BA93AA939EDDE091B4
:100894008601E03021F4E0918701E03019F00E94F4
:1008A4005E0CF5CFE0918601E03021F4E091870100
:1008B400E03009F003C00E945E0CF4CF0E94360CB5
:1008C4001CF4A881B98172DE36C0BA93AA937DDD87
:1008D400E0918B01E03021F4E0918C01E03019F0DB
:1008E4000E94650CF5CFE0918B01E03021F4E0919A
:1008F4008C01E03009F003C00E94650CF4CF0E9423
:10090400360C1CF4A881B98151DE15C00E946C0C10
:1009140021F40E94740CD9DF03C00E94740CB4DF6C
:100924000AC00E946C0C21F40E94740CADDF03C059
:100934000E94740CCADF24960895BA93AA93EDEE2C
:10094400DE2E0E943B0CEAEECE2E0E943B0C229639
:100954000895E0EFCE2EE6EEDE2E0895A7E0D9DC72
:100964006E2E7724EDE00E947B0C0E94E10BEEEDED
:10097400F0E0FA93EA93F301662777270E948F0D3C
:1009840084E00E946D0A289601C30E947F0CEF3414
:10099400A1F40E94840CA0E9B1E015DEE1E0F0E0EE
:1009A4000E94890C0E94840C0E948F0CACE2B0E07F
:1009B400E1E40E94930C0E94980C0E947F0CE134A5
:1009C40011F4BCD00BC00E947F0CE23411F4B9D0F6
:1009D40005C00E947F0CEA3509F4BED00E947F0C4A
:1009E400E13419F0E23409F092C00E949D0CE13028
:1009F400A0E0FA0719F4E5E0F0E011C00E949D0CB4
:100A0400E230A0E0FA0719F4E3E0F0E008C00E9445
:100A14009D0CE330A0E0FA0731F4E1E0F0E0FA9352
:100A2400EA930E94A20CE0E0E093AD01E093AE01F2
:100A3400E091AD01F091AE01309729F40E94840C4D
:100A44000E948F0C0AC0A091AD01B091AE01119724
:100A540059F40E94840C0E94A60CE1E0F0E00E948C
:100A6400890CA8ECB0E0A2DD0E94AA0CAEE5B1E0CE
:100A74005BDCE091AD01F091AE01309739F4ECEA22
:100A8400FDE0FA93EA930E948F0C0CC0A091AD0193
:100A9400B091AE01119731F4ECEAFDE0FA93EA93D8
:100AA4000E94A60C0E949D0CE130A0E0FA0719F404
:100AB400E5E0F0E011C00E949D0CE230A0E0FA07EE
:100AC40019F4E3E0F0E008C00E949D0CE330A0E0DC
:100AD400FA0731F4E1E0F0E0FA93EA930E94A20C01
:100AE4000E94840C0E948F0C0E947F0CE13411F44C
:100AF40045D005C00E947F0CE23409F442D00E9424
:100B0400AA0CA2E3B0E010DCA8ECB0E015C00E948F
:100B14007F0CEA3591F40E94AA0CAEE5B1E004DC46
:100B2400E4ECF9E0FA93EA930E94A60CE2E0F0E028
:100B34000E94890CA4EFB1E039DD0895E5E0F0E00E
:100B440002C0E2E0F0E0FA93EA930E94A20C0E9451
:100B5400840C0E94A60C0895E2E0F0E00E94890C47
:100B64000E94840C0E94A60CE1E0F0E0FA93EA9360
:100B74000E94840CA8ECB0E063DE0895E5E0F0E0A8
:100B840002C0E2E0F0E0FA93EA930E94A20C089516
:100B9400AA93C398E981FA81E0938201F0938301D7
:100BA400E881E03021F4E0918401E03009F006C0EE
:100BB4000E94AF0CA4EEB0E00E946B0BE981FA81B5
:100BC400309769F4E881E03011F0B4D08EC0E0E0F1
:100BD4000E947B0CA9EEB0E00E946B0B86C0E13052
:100BE400A0E0FA0789F4E881E03021F4E09184017F
:100BF400E03011F07CD079C0E0E00E947B0CA3EFE0
:100C0400B0E00E946B0B71C0E230A0E0FA0769F417
:100C1400E881E03011F00ED168C0E0E00E947B0C66
:100C2400ABEFB0E00E946B0B60C0E330A0E0FA07CA
:100C340099F4E881E03021F4E0918401E03021F07E
:100C4400A0E0B0E07FD051C0E0E00E947B0CA6E0C1
:100C5400B1E00E946B0B49C0E430A0E0FA0799F4BC
:100C6400E881E03021F4E0918401E03021F0A1E05A
:100C7400B0E068D03AC0E0E00E947B0CAFE0B1E0A5
:100C84000E946B0B32C0E530A0E0FA0769F4E881FA
:100C9400E03011F06DD029C0E0E00E947B0CA9E1A6
:100CA400B1E00E946B0B21C0E630A0E0FA0769F4C2
:100CB400E881E03011F088D018C0E0E00E947B0C9D
:100CC400AFE1B1E00E946B0B10C0E730A0E0FA077F
:100CD40061F4E881E03011F0D7D007C0E0E00E9471
:100CE4007B0CA6E2B1E00E946B0B0C947C0BE091B0
:100CF4008401E03071F40E94AF0CA3EFB0E00E94D5
:100D0400B30CACE2B1E00E946B0BE1E0E093840130
:100D140010C0E0918401E03061F00E94200BE0E01B
:100D24000E947B0CADE3B1E00E946B0B2EDE0E94AF
:100D3400B70C08957ADB0E94C10C99DB0E94C10CA8
:100D4400B8DB3CC0BA93AA93A881B981109711F07B
:100D5400119709F403C0E0E0E883E983E881F981AD
:100D6400AAE2B0E00E94A40D0E94B70C0C941E0BE2
:100D74000E94AF0CA8E4B1E00E94B30CA3E5B1E07B
:100D84000E94C50C0E94CC0CE0E00E947B0CAFE5F5
:100D9400B1E00E94D40C0E94DB0CABE6B1E00E94EF
:100DA400C50C0E94DB0CA7E7B1E00E94D40C0E94A2
:100DB400CC0CA8EEB3E0FADB0E94AF0CE0E0E093C9
:100DC40084010E94E50C0895E0E00E947B0CA3E8F6
:100DD400B1E00E946B0BE1E0E0938501E0918501B5
:100DE400E03039F1989909C0E0E00E94DD0BA3E9F5
:100DF400B1E00E94EC0C0E94E50C999907C0E0E078
:100E04000E94DD0BA3EAB1E00E946B0B9A9907C024
:100E1400E0E00E94DD0BA3EBB1E00E946B0B9B9919
:100E240007C0E0E00E94DD0BA3ECB1E00E946B0B75
:100E3400D5CF08950E94AF0CABEFB0E00E94B30C85
:100E4400A3EDB1E00E946B0BE1E0E093850181DD4D
:100E54000E94F50CA4E1B0E070DD80DDE091850135
:100E6400E03039F40E94200BE6EEDE2E0E94E50C01
:100E74000AC0989907C0E0E00E94DD0BAAEDB1E03A
:100E84000E94EC0CEACF08950E94AF0CA5EEB1E0ED
:100E94000E94B30CA0EFB1E00E946B0BEDEEDE2ECE
:100EA400A4EFB1E041DAE0E00E947B0CABEFB1E0EB
:100EB4000E946B0BE6EEDE2E0E94C10CE0E00E9465
:100EC4007B0CA6E0B2E00E946B0BE0EFCE2E0E94FA
:100ED400C10CE0E00E947B0CA0E1B2E00E946B0B2D
:100EE400EAEECE2E0E94C10C08956FDAE7E00E946C
:100EF400DD0B0E94E10BECE8F0E0FA93EA93AAE23E
:100F0400B0E00E94940D0E94270C84E00E946D0AB8
:100F140028963CC00E947F0CEF3431F0E13421F07C
:100F2400E23411F0EA3509F405C0ACE2B0E0EFE4D4
:100F34000E94AC0D0E949D0CBF010F01DF0131978F
:100F440059F0FD01329741F0F001339729F0FB018C
:100F5400E430A0E0FA0709F404C0ADE2B0E00E9476
:100F6400980CEAE00E947B0C0E94E10BECE2F2E0B8
:100F7400FA93EA930E947F0C0E94E60B0E949D0C58
:100F84000E94270C88E00E946D0A2C96A0E6B1E02E
:100F94000E945C0B0895AA93EA93EFB7EA93E6E9FB
:100FA400E2BFE0918101EF5FE0938101A0918101B3
:100FB400DA1610F0AE9801C0AE9AA0918101CA165B
:100FC40010F0AF9801C0AF9AE991EFBFE991A991F0
:100FD40018951895E0E0EBBBEABBE8E0E8BBEFEF5F
:100FE400E7BBE5BBE0EFE4BBE1E0E2BBEEEFE1BB76
:100FF400EAE4E3BFE6E9E2BFE0E0ECBFE1EAEFBD2B
:10100400E9E0EEBDE0E0EDBDECBDE7BDE6BDEBBD66
:10101400EABDE9BDE8BDE2BDE5BDE4BDE3BDE5BFB4
:10102400E4BFE3E0E9BFE0E8E8B9E0E0E0BFE5BF42
:10103400E4BFEAB9E0E6E7B9E4E8E6B9E0B7EF719E
:10104400E0BFA0E10E948F0B0E94200BC398E0E058
:101054000E94DD0BA1E3B2E00E94B30CA2E4B2E073
:101064000E946B0BA4EFB1E00E94A80E0E94200B1B
:101074007894EAEECE2EE6EEDE2EAAE2B0E00E94EE
:10108400940D309721F0E130A0E0FA0709F406C08E
:10109400AAE2B0E0E0E0F0E00E94A40D0E94AF0CF0
:1010A400A4EEB0E00E94B30CA9EEB0E00E946B0B7A
:1010B400E0918401E03021F48BD950DC16DF2ADF83
:1010C400989919C0E0918401E03021F4A2E8B1E0DC
:1010D4000E94F90CA0918201B091830118972CF021
:1010E400E0E0E0938201E09383010E94F50C0E940A
:1010F400FF0CA0E04DDD999906C00E94FF0CA1E011
:1011040047DD0E94F50C9A9937C00E949D0C3097D8
:1011140019F40E94060D05C00E949D0C3196ADE2A3
:10112400B0E00E94A40D0E949D0C339724F00E940D
:101134007F0CEF3409F003C00E94060D19C00E9411
:101144009D0C349724F00E947F0CEA3509F403C007
:101154000E94060D0DC00E949D0C349724F00E943D
:101164007F0CEA3509F006C0ADE2B0E0E4E0F0E05F
:101174000E94A40D0E94F50C9B9935C00E947F0C1F
:10118400EF3431F4ACE2B0E0E1E40E94AC0D29C0EC
:101194000E947F0CE13481F4ACE2B0E0E2E40E940E
:1011A400930C0E94940DE430A0E0FA0721F4ADE220
:1011B400B0E00E94980C15C00E947F0CE23441F408
:1011C400ACE2B0E0EAE50E94930CE4E0F0E007C092
:1011D400ACE2B0E0EFE40E94930CE1E0F0E00E94A6
:1011E400A40D0E94F50C64CFFFCFBA93AA931A936F
:1011F4000A93AA81BB8112960E94870D309729F128
:10120400AA81BB8114960E94870D8F01309761F0EB
:101214000230E0E01E0780F0F80131978F01AA81C7
:10122400BB811496ED93FC93AA81BB8112960E9414
:10123400F90C3197AC81A083AA81BB810E94870DF0
:10124400FF2312F00E94F90C06C0AA81BB81EFEFC4
:10125400FFEFED93FC931981088125960895BA93C5
:10126400AA9326970E94310D10E0AC85BD85E0E07D
:10127400F0E0ED93FC93EA89FB893196EA8BFB8BD2
:101284003197E4912E2FE03009F41DC1E12FE030B5
:1012940039F4253211F411E002C00E940B0D12C181
:1012A400E130A9F4253219F40E940B0D0AC112E0B1
:1012B40040E000E02D3211F401E004C12B3211F4BE
:1012C4004BE200C1203211F440E2FCC002C0E23023
:1012D40039F450E013E0203311F40068F3C003C084
:1012E400E33009F0EFC0203310F02A3308F007C0D0
:1012F400AAE05A9F502DE22FE0535E0FE3C0E22F85
:10130400E33649F40E94120DE889F989A481AA936D
:101314000E94180DD6C0E33741F40E94120D0E94BA
:101324001E0D0E94A90A1E2F0AC0E03761F40E9414
:10133400120D0E941E0D0E94B50A1E2F0860026045
:101344000F7730E03CC0E43611F0E93611F4046064
:1013540002C0E53731F4E4E5F0E0EE83FF8315E005
:101364000CC0E83511F4086003C0E83709F0A9C0DF
:10137400EEE5F0E0EE83FF8314E002FF17C00E9465
:10138400120DA889B9891496ED91FD91EA87FB871E
:10139400AB85AA232AF40E94430DEA87FB874DE21A
:1013A400403011F01F5F01C00B7F09C00E94120D75
:1013B400A889B98914960E94870DEA87FB8700FDE6
:1013C40011C0151778F407FF08C002FF04C00B7F93
:1013D400242F115001C020E301C020E20E940B0D14
:1013E4005150EFCF312F01FF17C03030A1F003FF70
:1013F40006C0EE81FF812591EE83FF8305C0AE8197
:10140400BF812D91AE83BF830E940B0D503009F034
:1014140051503150EACF4BC020E3EE81FF810E944E
:101424008B0DE887F987EE81FF813296EE83FF8387
:10143400E885F985AA85BB85AE17BF0750F02F5FF5
:10144400A885B985EA85FB85EA1BFB0BEA87FB8740
:10145400EFCF2A3328F003FF02C0295F01C0295DC2
:1014640004FD1AC0213320F4A885B985119709F425
:1014740009C0531710F000FF01C013C020E207FF9A
:101484000BC020E3006102FF07C00B7F4A930E9458
:10149400180D503009F051500E940B0D503009F0D6
:1014A40051503150A885B985129708F0B5CF00FF87
:1014B40008C0503031F05150E0E2EA930E94180D18
:1014C400F8CF10E0D8CEAC85BD85ED91FD910E949A
:1014D400380D64960895FF92F82E26970E94330DD6
:1014E400DE011C960E943F0D0E94870D309719F46F
:1014F400EFEFFFEF27C0DE0116960E943F0D8D012E
:10150400DE011C960E943F0DED91FD91EE83FF8359
:10151400E0E0E887E987DE011A960E943F0DED912D
:10152400FD91FA93EA931A930A93E7EFF8E0FA939A
:10153400EA93DE011A9693DE9F01AE81BF81E0E05B
:10154400EC93F9010E943A0D2A96FF900895BA93FC
:10155400AA93A991B991EE27FF276D91662311F003
:101564003196FBCF0895BA93AA93AA27BB27E99192
:10157400F9910590002011F01196FBCFFD0108951B
:10158400BA93AA93E991F99130971AF4E095F095FA
:1015940031960895FFE0FA95F1F70895A7B3AF7077
:1015A400A7BBC19AC098F6DFC29AF4DFA6B3C2986B
:1015B400F1DFC29AEFDFC298A7FDF5CF0895A07FAF
:1015C400AB2BA8BBC29A0E94CC0AC2980E94CC0A38
:1015D4000895AA93C198A7B3A76FA7BBB8B3BF7068
:1015E400A881EDDFA881A295EADFC19A0C94C10B12
:1015F400C29A0E94CC0AE6B3C2980E94CC0AE07F49
:1016040008950E94CC0AF4DFAE2FF2DFC198E29570
:10161400EA2B0895AA930E94D00AE881F0E0ED54E1
:10162400FE4FE081A981AE0F0E94EB0AE981E093AD
:10163400B701E881E093B801229608950E94D00A88
:10164400A2E00E94EB0A0E94D00AACE00E94EB0ADE
:101654000E94D00AA1E00E94EB0AE0E0E093B80106
:10166400E093B7010895AA93EF93FF93A881689438
:10167400AA3039F0E894E091B901A091B701AE170E
:1016840058F0E091B801EF5FE093B801E0E0EA932D
:10169400A091B801BFDF56F0E091B701EF5FE0938E
:1016A400B7017CDFC09AA8810E94EB0AFF91EF91F9
:1016B4000C94C10BBA93AA931A93A981BA81ED91A0
:1016C400A983BA831E2FE03019F0A12FCCDFF5CF08
:1016D40010C0BA93AA931A93E981FA813196E983E7
:1016E400FA833197E4911E2FE03019F0A12FBBDF6C
:1016F400F3CF188123960895AA27BB271197F1F7F2
:101704000895AA93C198A7B3A76FA7BBB8B3BF7036
:10171400A8810E94E10AC19A32C0AA93C298C098D3
:10172400E881E093B901E058E093B501E881E05421
:10173400E093B6010E94280D0E94280D0E94280DF6
:10174400DBDFA0E2DEDFD8DFA8E20E942D0DA4E0FB
:101754000E942D0DA5E80E942D0DA7B3AF70A7BB65
:10176400C19A0E94030BE53011F0E0E008C00E942A
:10177400D00AA6E00E94EB0A0E94200BE1E0219629
:101784000895E7E0F0E08E169F060895A82D0E94C4
:101794008B010E2EF401ACE1B0E0EE0FFF1FAE0F93
:1017A400BF1F0E94940DA02DB0E00895EA9FF001A0
:1017B4006E0F7F1F0895EA93A0E00C940C0BE0E6F3
:1017C400F1E0FA93EA930895FF27662777270E94AA
:1017D4008F0D0895A0E6B1E00C945C0BF401A0E039
:1017E400B0E0EE0FFF1F0895F0E00E94A40DE0E0CA
:1017F400E2CF0E946B0BE0E0EA93A1E00E940C0BA5
:10180400DECFE9E9F0E0FA93EA93F4010E944F0D88
:101814000E948F0D0895AE0FBF1F0E94940D0E9469
:101824004F0D0E948F0D88E00E946D0A2C96D2CF36
:10183400C398A4E6B0E00E94A80EC39A0895F401E8
:10184400AEE0B0E0EE0FFF1F08950E944F0D0E941E
:101854008F0D0895AA93E881F0E0F9BDE8BDE98110
:10186400F0E0FBBDEABD0895A881B9810E94BD0DD9
:101874000895A881B9810C949601E881F9810E94A8
:101884004F0D0E942D0E08950E94F60DED93FC93CA
:101894000895E0918D01F0918E010895E0919B01EE
:1018A400F0919C010895E0919901F0919A010895B5
:1018B400F0DFEC71EC310895EA81EA93AB810E9488
:1018C400B0020C94E701EA81EA93AB810E94A90279
:1018D4000C94E701BA93AA93AAE2B0E00E94940D93
:1018E40030970895EA81FB81FA93EA93AA81BB8138
:1018F4000895EA93A1E00C940C0BACE2B0E00E94D2
:10190400980D0895E0EDF7E0FA93EA930895FA93B9
:10191400EA93A0EDB7E00C94FE03A8ECB0E00C94BD
:1019240093040E94AC0DADE2B0E00895E1E0F0E074
:101934000E94A40D0895ADE2B0E00E94940D0895B4
:10194400A0EDB7E00C94FE03A8ECB0E00C9488047E
:10195400E0EDEA93A0ED0C94A2020E94200BE0E0DB
:101964002ACF0E946B0BE0E0C4CFE0E0E093840157
:10197400E0E0F0E0FA93EA93A0E00C94CA05A8EE44
:10198400B3E00C9496010E946B0BE8EEF3E0FA933B
:10199400EA930895A8EEB3E00E94B702A0EDB7E081
:1019A4000C94A80E0E946B0BE8E1FCEFFA93EA9307
:1019B4000895A8E1BCEF0E94B702A0EDB7E00E9431
:1019C400A80EE0E096CFE0E0F0E0FA93EA93A0E01E
:1019D4000C94CA050E946B0BE0E0E0938501A4EF30
:1019E400B1E00C949601A8ECB0E00C949601ED9152
:1019F400FD913196FE93EE930895E0918201F0916A
:101A04008301FA93EA930895ADE2B0E0E1E0F0E0F7
:101A140008952A93AD85BE85EF85F88909950895C3
:101A2400E889F9893497E88BF98B0895AD85BE85EB
:101A3400EF85F88909950895A889B9891496ED91D7
:101A4400FD91EE83FF83AE81BF8108950E947E0BDA
:101A5400A0E30C94830B0E94EB0A0C947E0B5A9324
:101A64004A933A932A931A930A9308955D814C8179
:101A74003B812A811981088108950024AF0DB01D8E
:101A84000895F195E195F0400895F095609570956D
:101A9400E195FF4F6F4F7F4F08956F2F660F660BD1
:101AA400762F0895FA9FF02DEB9FF00DEA9FE02D1D
:101AB400F10D08951CD0F6DF0EF4E3DF0895002441
:101AC400112490E1AA0FBB1F001C111C0E1A1F0A3F
:101AD40018F40E0E1F1E01C0A1609A9599F7FD011E
:101AE400D001089504D0EBDF0EF4CBDF0895E89421
:101AF400F7FF02C0C6DF6894B7FF06C0B195A19591
:101B0400B04000F8039400FA0895ED91FC91119708
:101B140008950590F491E02D08957A936A93FA93C9
:101B2400EA930895119602D0FE2F1197E199FECF02
:101B3400FF93FFB7F894AEBBBFBBE09AEDB3FFBF12
:101B4400FF91089507D01196EF93EF2F03D0EF91F3
:101B540011970895E19B02C0A895FCCF9FB7F89414
:101B6400AEBBBFBBE09A8DB3E81719F0EDBBE29AA8
:101B7400E19A9FBF089500240A160B060895309732
:101B84006040704009F070580895552342F450386D
:101B940011F4E0FF04C03196691F791F6BF050E81F
:101BA400572711F45F9373C05F3F31F0660F000C49
:101BB40057956795752F08955F9300200AF072C0BA
:101BC4006BC050E8192E1522880F991F9527550FC1
:101BD400879550E8072E0522660F771F7527550F46
:101BE40067950895689401C0E8945F93F2DF7038B4
:101BF40018F07F3F08F44BC056E1571BAAF45195E7
:101C040058300EF4593030F0EFEFFFEF6FEF7FE70D
:101C140077F91AC077275523B9F0EE0FFF1F661F17
:101C2400771F5A95D1F710C07727583028F0EF2F37
:101C3400F62F672F5850F9CF552331F076956795D5
:101C4400F795E7955A95D1F700200AF41EDF5F91C6
:101C54000895689401C0E894309760407040B1F0F2
:101C6400002426F0772312F400940FDF172E7EE170
:101C7400112032F07A95EE0FFF1F661F111CF9CF69
:101C8400EF2FF62F612D5F938ADF5F910895EE2782
:101C9400FF27BF015F910895EFEFFFEF6FE77FEF3D
:101CA4005F910895EFEFFFEF6FE77FE75F9108958E
:101CB4005F9387DF703859F3903849F3012408940F
:101CC400791F23F424F300203AF3ECCF0F921F93EF
:101CD4002F933F934F93112722279927689FA001A1
:101CE4008F9F302D410D591F6B9F300D411D591F82
:101CF4008E9F27D0BF9F25D06A9F23D0BE9F1DD023
:101D0400AF9F1BD0AE9F110D291F391F491F591FAB
:101D1400E32FF42F652F522F4F913F912F911F9155
:101D24000F9066232AF0550FEE1FFF1F661F02C097
:101D340073954BF22ADF5F910895100D211D391F11
:101D440002C0200D311D491F591F0895109639F006
:101D5400A8958DEC9AE00197F1F71197C9F70895CA
:00000001FF
